{
  "contractName": "CustodianWalletLogic",
  "abi": [
    {
      "anonymous": false,
      "inputs": [
        {
          "indexed": false,
          "internalType": "uint256",
          "name": "orderId",
          "type": "uint256"
        }
      ],
      "name": "ApproveRejectedOrder",
      "type": "event"
    },
    {
      "anonymous": false,
      "inputs": [
        {
          "indexed": false,
          "internalType": "uint256",
          "name": "orderId",
          "type": "uint256"
        },
        {
          "indexed": true,
          "internalType": "address",
          "name": "seller",
          "type": "address"
        },
        {
          "indexed": true,
          "internalType": "address",
          "name": "buyer",
          "type": "address"
        },
        {
          "indexed": true,
          "internalType": "address",
          "name": "receiver",
          "type": "address"
        },
        {
          "indexed": false,
          "internalType": "uint256",
          "name": "amount",
          "type": "uint256"
        },
        {
          "indexed": false,
          "internalType": "uint256",
          "name": "rate",
          "type": "uint256"
        },
        {
          "indexed": false,
          "internalType": "uint256",
          "name": "fee",
          "type": "uint256"
        },
        {
          "indexed": false,
          "internalType": "uint8",
          "name": "orderType",
          "type": "uint8"
        },
        {
          "indexed": false,
          "internalType": "uint256",
          "name": "fulfiledTime",
          "type": "uint256"
        },
        {
          "indexed": false,
          "internalType": "uint8",
          "name": "orderStatus",
          "type": "uint8"
        }
      ],
      "name": "ClosedOrder",
      "type": "event"
    },
    {
      "anonymous": false,
      "inputs": [
        {
          "indexed": false,
          "internalType": "uint256",
          "name": "orderId",
          "type": "uint256"
        },
        {
          "indexed": true,
          "internalType": "address",
          "name": "seller",
          "type": "address"
        },
        {
          "indexed": true,
          "internalType": "address",
          "name": "buyer",
          "type": "address"
        },
        {
          "indexed": true,
          "internalType": "address",
          "name": "receiver",
          "type": "address"
        },
        {
          "indexed": false,
          "internalType": "uint256",
          "name": "amount",
          "type": "uint256"
        },
        {
          "indexed": false,
          "internalType": "uint256",
          "name": "rate",
          "type": "uint256"
        },
        {
          "indexed": false,
          "internalType": "uint256",
          "name": "fee",
          "type": "uint256"
        },
        {
          "indexed": false,
          "internalType": "uint8",
          "name": "orderType",
          "type": "uint8"
        },
        {
          "indexed": false,
          "internalType": "uint8",
          "name": "orderStatus",
          "type": "uint8"
        }
      ],
      "name": "OpenOrder",
      "type": "event"
    },
    {
      "anonymous": false,
      "inputs": [
        {
          "indexed": false,
          "internalType": "uint256",
          "name": "orderId",
          "type": "uint256"
        }
      ],
      "name": "OrderFulfilled",
      "type": "event"
    },
    {
      "anonymous": false,
      "inputs": [
        {
          "indexed": false,
          "internalType": "uint256",
          "name": "orderId",
          "type": "uint256"
        }
      ],
      "name": "RejectedOrder",
      "type": "event"
    },
    {
      "inputs": [],
      "name": "factory",
      "outputs": [
        {
          "internalType": "address",
          "name": "",
          "type": "address"
        }
      ],
      "stateMutability": "view",
      "type": "function"
    },
    {
      "inputs": [
        {
          "internalType": "address",
          "name": "",
          "type": "address"
        },
        {
          "internalType": "uint256",
          "name": "",
          "type": "uint256"
        }
      ],
      "name": "openOrders",
      "outputs": [
        {
          "internalType": "uint256",
          "name": "",
          "type": "uint256"
        }
      ],
      "stateMutability": "view",
      "type": "function"
    },
    {
      "inputs": [
        {
          "internalType": "uint256",
          "name": "",
          "type": "uint256"
        }
      ],
      "name": "orders",
      "outputs": [
        {
          "internalType": "address",
          "name": "seller",
          "type": "address"
        },
        {
          "internalType": "address",
          "name": "buyer",
          "type": "address"
        },
        {
          "internalType": "address",
          "name": "receiver",
          "type": "address"
        },
        {
          "internalType": "uint256",
          "name": "amount",
          "type": "uint256"
        },
        {
          "internalType": "uint256",
          "name": "rate",
          "type": "uint256"
        },
        {
          "internalType": "uint256",
          "name": "fee",
          "type": "uint256"
        },
        {
          "internalType": "uint8",
          "name": "orderType",
          "type": "uint8"
        },
        {
          "internalType": "uint8",
          "name": "orderStatus",
          "type": "uint8"
        },
        {
          "internalType": "uint256",
          "name": "startTime",
          "type": "uint256"
        },
        {
          "internalType": "uint256",
          "name": "fulfiledTime",
          "type": "uint256"
        }
      ],
      "stateMutability": "view",
      "type": "function"
    },
    {
      "inputs": [],
      "name": "getTotalBalance",
      "outputs": [
        {
          "internalType": "uint256",
          "name": "",
          "type": "uint256"
        }
      ],
      "stateMutability": "view",
      "type": "function"
    },
    {
      "inputs": [],
      "name": "getOpenOrders",
      "outputs": [
        {
          "internalType": "uint256[]",
          "name": "",
          "type": "uint256[]"
        }
      ],
      "stateMutability": "view",
      "type": "function"
    },
    {
      "inputs": [
        {
          "internalType": "address",
          "name": "_seller",
          "type": "address"
        },
        {
          "internalType": "address",
          "name": "_receiver",
          "type": "address"
        },
        {
          "internalType": "uint256",
          "name": "_amount",
          "type": "uint256"
        },
        {
          "internalType": "uint256",
          "name": "_rate",
          "type": "uint256"
        },
        {
          "internalType": "uint256",
          "name": "_fee",
          "type": "uint256"
        }
      ],
      "name": "newBuyOrder",
      "outputs": [
        {
          "internalType": "uint256",
          "name": "",
          "type": "uint256"
        }
      ],
      "stateMutability": "nonpayable",
      "type": "function"
    },
    {
      "inputs": [
        {
          "internalType": "address",
          "name": "_buyer",
          "type": "address"
        },
        {
          "internalType": "address",
          "name": "_receiver",
          "type": "address"
        },
        {
          "internalType": "uint256",
          "name": "_amount",
          "type": "uint256"
        },
        {
          "internalType": "uint256",
          "name": "_rate",
          "type": "uint256"
        },
        {
          "internalType": "uint256",
          "name": "_fee",
          "type": "uint256"
        }
      ],
      "name": "newSellOrder",
      "outputs": [
        {
          "internalType": "uint256",
          "name": "",
          "type": "uint256"
        }
      ],
      "stateMutability": "nonpayable",
      "type": "function"
    },
    {
      "inputs": [],
      "name": "availBalance",
      "outputs": [
        {
          "internalType": "uint256",
          "name": "",
          "type": "uint256"
        }
      ],
      "stateMutability": "view",
      "type": "function"
    },
    {
      "inputs": [
        {
          "internalType": "uint256",
          "name": "_openOrderIndex",
          "type": "uint256"
        }
      ],
      "name": "approveOrder",
      "outputs": [],
      "stateMutability": "nonpayable",
      "type": "function"
    },
    {
      "inputs": [
        {
          "internalType": "uint256",
          "name": "_orderId",
          "type": "uint256"
        }
      ],
      "name": "rejectOrder",
      "outputs": [],
      "stateMutability": "nonpayable",
      "type": "function"
    },
    {
      "inputs": [
        {
          "internalType": "uint256",
          "name": "_openOrderIndex",
          "type": "uint256"
        }
      ],
      "name": "consentOrderRejected",
      "outputs": [],
      "stateMutability": "nonpayable",
      "type": "function"
    }
  ],
  "bytecode": "0x608060405234801561001057600080fd5b506124b2806100206000396000f3fe608060405234801561001057600080fd5b50600436106100c6576000357c01000000000000000000000000000000000000000000000000000000009004806391c024151161008e57806391c0241514610195578063a85c38ef146101b1578063bd4b8a04146101ea578063c45a015514610206578063dbe5bab514610224578063fdf61e6814610242576100c6565b806312b58349146100cb5780631971e03b146100e95780631e7cea801461011957806324f63894146101495780636282682a14610165575b600080fd5b6100d3610260565b6040516100e09190611f73565b60405180910390f35b61010360048036038101906100fe9190611829565b61026f565b6040516101109190611f73565b60405180910390f35b610133600480360381019061012e91906118a4565b6105ae565b6040516101409190611f73565b60405180910390f35b610163600480360381019061015e9190611988565b6105df565b005b61017f600480360381019061017a9190611829565b610796565b60405161018c9190611f73565b60405180910390f35b6101af60048036038101906101aa9190611988565b61085e565b005b6101cb60048036038101906101c69190611988565b610a42565b6040516101e19a99989796959493929190611d2c565b60405180910390f35b61020460048036038101906101ff9190611988565b610b20565b005b61020e610d96565b60405161021b9190611c33565b60405180910390f35b61022c610dbc565b6040516102399190611df1565b60405180910390f35b61024a610dcb565b6040516102579190611f73565b60405180910390f35b600061026a610dda565b905090565b60008061027a610f26565b73ffffffffffffffffffffffffffffffffffffffff166311eac8556040518163ffffffff167c010000000000000000000000000000000000000000000000000000000002815260040160206040518083038186803b1580156102db57600080fd5b505afa1580156102ef573d6000803e3d6000fd5b505050506040513d601f19601f8201168201806040525081019061031391906117fc565b9050600073ffffffffffffffffffffffffffffffffffffffff168773ffffffffffffffffffffffffffffffffffffffff161415610385576040517f08c379a000000000000000000000000000000000000000000000000000000000815260040161037c90611ef3565b60405180910390fd5b600073ffffffffffffffffffffffffffffffffffffffff168173ffffffffffffffffffffffffffffffffffffffff1614156103f5576040517f08c379a00000000000000000000000000000000000000000000000000000000081526004016103ec90611f53565b60405180910390fd5b82856104019190612029565b8173ffffffffffffffffffffffffffffffffffffffff166370a08231896040518263ffffffff167c01000000000000000000000000000000000000000000000000000000000281526004016104569190611c33565b60206040518083038186803b15801561046e57600080fd5b505afa158015610482573d6000803e3d6000fd5b505050506040513d601f19601f820116820180604052508101906104a691906119b5565b10156104e7576040517f08c379a00000000000000000000000000000000000000000000000000000000081526004016104de90611eb3565b60405180910390fd5b6104ef610f26565b73ffffffffffffffffffffffffffffffffffffffff1663b1fab21c88308989898960006040518863ffffffff167c01000000000000000000000000000000000000000000000000000000000281526004016105509796959493929190611c4e565b602060405180830381600087803b15801561056a57600080fd5b505af115801561057e573d6000803e3d6000fd5b505050506040513d601f19601f820116820180604052508101906105a291906119b5565b91505095945050505050565b600160205281600052604060002081815481106105ca57600080fd5b90600052602060002001600091509150505481565b60006105e9610f26565b73ffffffffffffffffffffffffffffffffffffffff166342b50a7a836040518263ffffffff167c010000000000000000000000000000000000000000000000000000000002815260040161063d9190611f73565b6101406040518083038186803b15801561065657600080fd5b505afa15801561066a573d6000803e3d6000fd5b505050506040513d601f19601f8201168201806040525081019061068e919061195a565b90503073ffffffffffffffffffffffffffffffffffffffff16816000015173ffffffffffffffffffffffffffffffffffffffff1614610702576040517f08c379a00000000000000000000000000000000000000000000000000000000081526004016106f990611e53565b60405180910390fd5b61070a610f26565b73ffffffffffffffffffffffffffffffffffffffff1663240f416030846040518363ffffffff167c0100000000000000000000000000000000000000000000000000000000028152600401610760929190611dc8565b600060405180830381600087803b15801561077a57600080fd5b505af115801561078e573d6000803e3d6000fd5b505050505050565b60006107a0610f26565b73ffffffffffffffffffffffffffffffffffffffff1663b1fab21c30888888888860016040518863ffffffff167c01000000000000000000000000000000000000000000000000000000000281526004016108019796959493929190611cbd565b602060405180830381600087803b15801561081b57600080fd5b505af115801561082f573d6000803e3d6000fd5b505050506040513d601f19601f8201168201806040525081019061085391906119b5565b905095945050505050565b6000610868610fe9565b9050600081838151811061087f5761087e6121d5565b5b602002602001015190506000610893610f26565b73ffffffffffffffffffffffffffffffffffffffff166342b50a7a836040518263ffffffff167c01000000000000000000000000000000000000000000000000000000000281526004016108e79190611f73565b6101406040518083038186803b15801561090057600080fd5b505afa158015610914573d6000803e3d6000fd5b505050506040513d601f19601f82011682018060405250810190610938919061195a565b90503073ffffffffffffffffffffffffffffffffffffffff16816020015173ffffffffffffffffffffffffffffffffffffffff16146109ac576040517f08c379a00000000000000000000000000000000000000000000000000000000081526004016109a390611e73565b60405180910390fd5b6109b4610f26565b73ffffffffffffffffffffffffffffffffffffffff1663ef3bbbff30866040518363ffffffff167c0100000000000000000000000000000000000000000000000000000000028152600401610a0a929190611dc8565b600060405180830381600087803b158015610a2457600080fd5b505af1158015610a38573d6000803e3d6000fd5b5050505050505050565b60008181548110610a5257600080fd5b90600052602060002090600902016000915090508060000160009054906101000a900473ffffffffffffffffffffffffffffffffffffffff16908060010160009054906101000a900473ffffffffffffffffffffffffffffffffffffffff16908060020160009054906101000a900473ffffffffffffffffffffffffffffffffffffffff16908060030154908060040154908060050154908060060160009054906101000a900460ff16908060060160019054906101000a900460ff1690806007015490806008015490508a565b6000610b2a610fe9565b90506000815111610b70576040517f08c379a0000000000000000000000000000000000000000000000000000000008152600401610b6790611e93565b60405180910390fd5b6000818381518110610b8557610b846121d5565b5b602002602001015190506000610b99610f26565b73ffffffffffffffffffffffffffffffffffffffff166342b50a7a836040518263ffffffff167c0100000000000000000000000000000000000000000000000000000000028152600401610bed9190611f73565b6101406040518083038186803b158015610c0657600080fd5b505afa158015610c1a573d6000803e3d6000fd5b505050506040513d601f19601f82011682018060405250810190610c3e919061195a565b90503073ffffffffffffffffffffffffffffffffffffffff16816000015173ffffffffffffffffffffffffffffffffffffffff1614610cb2576040517f08c379a0000000000000000000000000000000000000000000000000000000008152600401610ca990611e13565b60405180910390fd5b610cba610f26565b73ffffffffffffffffffffffffffffffffffffffff1663b00f215c30866040518363ffffffff167c0100000000000000000000000000000000000000000000000000000000028152600401610d10929190611dc8565b600060405180830381600087803b158015610d2a57600080fd5b505af1158015610d3e573d6000803e3d6000fd5b50505050610d59816040015182606001518360a001516110a1565b7fd276fbc5e545783825cac5416bad154c47e39daebf44589255a65b4f56cf3e0e82604051610d889190611f73565b60405180910390a150505050565b600260009054906101000a900473ffffffffffffffffffffffffffffffffffffffff1681565b6060610dc6610fe9565b905090565b6000610dd56114ad565b905090565b6000610de4610f26565b73ffffffffffffffffffffffffffffffffffffffff166311eac8556040518163ffffffff167c010000000000000000000000000000000000000000000000000000000002815260040160206040518083038186803b158015610e4557600080fd5b505afa158015610e59573d6000803e3d6000fd5b505050506040513d601f19601f82011682018060405250810190610e7d91906117fc565b73ffffffffffffffffffffffffffffffffffffffff166370a08231336040518263ffffffff167c0100000000000000000000000000000000000000000000000000000000028152600401610ed19190611c33565b60206040518083038186803b158015610ee957600080fd5b505afa158015610efd573d6000803e3d6000fd5b505050506040513d601f19601f82011682018060405250810190610f2191906119b5565b905090565b6000600260009054906101000a900473ffffffffffffffffffffffffffffffffffffffff1673ffffffffffffffffffffffffffffffffffffffff1663d226ae086040518163ffffffff167c010000000000000000000000000000000000000000000000000000000002815260040160206040518083038186803b158015610fac57600080fd5b505afa158015610fc0573d6000803e3d6000fd5b505050506040513d601f19601f82011682018060405250810190610fe491906117fc565b905090565b6060610ff3610f26565b73ffffffffffffffffffffffffffffffffffffffff16636dee2032306040518263ffffffff167c01000000000000000000000000000000000000000000000000000000000281526004016110479190611c33565b60006040518083038186803b15801561105f57600080fd5b505afa158015611073573d6000803e3d6000fd5b505050506040513d6000823e3d601f19601f8201168201806040525081019061109c91906118e4565b905090565b3073ffffffffffffffffffffffffffffffffffffffff168373ffffffffffffffffffffffffffffffffffffffff161415611110576040517f08c379a000000000000000000000000000000000000000000000000000000000815260040161110790611f13565b60405180910390fd5b600073ffffffffffffffffffffffffffffffffffffffff168373ffffffffffffffffffffffffffffffffffffffff161415611180576040517f08c379a000000000000000000000000000000000000000000000000000000000815260040161117790611e33565b60405180910390fd5b600082116111c3576040517f08c379a00000000000000000000000000000000000000000000000000000000081526004016111ba90611f33565b60405180910390fd5b816111cc6114ad565b101561120d576040517f08c379a000000000000000000000000000000000000000000000000000000000815260040161120490611ed3565b60405180910390fd5b611215610f26565b73ffffffffffffffffffffffffffffffffffffffff166311eac8556040518163ffffffff167c010000000000000000000000000000000000000000000000000000000002815260040160206040518083038186803b15801561127657600080fd5b505afa15801561128a573d6000803e3d6000fd5b505050506040513d601f19601f820116820180604052508101906112ae91906117fc565b73ffffffffffffffffffffffffffffffffffffffff1663a9059cbb84846040518363ffffffff167c0100000000000000000000000000000000000000000000000000000000028152600401611304929190611dc8565b602060405180830381600087803b15801561131e57600080fd5b505af1158015611332573d6000803e3d6000fd5b505050506040513d601f19601f82011682018060405250810190611356919061192d565b5061135f610f26565b73ffffffffffffffffffffffffffffffffffffffff166311eac8556040518163ffffffff167c010000000000000000000000000000000000000000000000000000000002815260040160206040518083038186803b1580156113c057600080fd5b505afa1580156113d4573d6000803e3d6000fd5b505050506040513d601f19601f820116820180604052508101906113f891906117fc565b73ffffffffffffffffffffffffffffffffffffffff1663a9059cbb61141b610f26565b836040518363ffffffff167c0100000000000000000000000000000000000000000000000000000000028152600401611455929190611dc8565b602060405180830381600087803b15801561146f57600080fd5b505af1158015611483573d6000803e3d6000fd5b505050506040513d601f19601f820116820180604052508101906114a7919061192d565b50505050565b6000806114b8610fe9565b905060006114c4610dda565b905060005b600183516114d7919061207f565b8110156115e15760006114e8610f26565b73ffffffffffffffffffffffffffffffffffffffff166342b50a7a858481518110611516576115156121d5565b5b60200260200101516040518263ffffffff167c01000000000000000000000000000000000000000000000000000000000281526004016115569190611f73565b6101406040518083038186803b15801561156f57600080fd5b505afa158015611583573d6000803e3d6000fd5b505050506040513d601f19601f820116820180604052508101906115a7919061195a565b90508060600151836115b9919061207f565b92508060a00151836115cb919061207f565b92505080806115d99061215d565b9150506114c9565b50809250505090565b60006115fd6115f884611fb3565b611f8e565b905080838252602082019050828560208602820111156116205761161f61223d565b5b60005b85811015611650578161163688826117d2565b845260208401935060208301925050600181019050611623565b5050509392505050565b60008135905061166981612420565b92915050565b60008151905061167e81612420565b92915050565b600082601f83011261169957611698612233565b5b81516116a98482602086016115ea565b91505092915050565b6000815190506116c181612437565b92915050565b600061014082840312156116de576116dd612238565b5b6116e9610140611f8e565b905060006116f98482850161166f565b600083015250602061170d8482850161166f565b60208301525060406117218482850161166f565b6040830152506060611735848285016117d2565b6060830152506080611749848285016117d2565b60808301525060a061175d848285016117d2565b60a08301525060c0611771848285016117e7565b60c08301525060e0611785848285016117e7565b60e08301525061010061179a848285016117d2565b610100830152506101206117b0848285016117d2565b6101208301525092915050565b6000813590506117cc8161244e565b92915050565b6000815190506117e18161244e565b92915050565b6000815190506117f681612465565b92915050565b60006020828403121561181257611811612247565b5b60006118208482850161166f565b91505092915050565b600080600080600060a0868803121561184557611844612247565b5b60006118538882890161165a565b95505060206118648882890161165a565b9450506040611875888289016117bd565b9350506060611886888289016117bd565b9250506080611897888289016117bd565b9150509295509295909350565b600080604083850312156118bb576118ba612247565b5b60006118c98582860161165a565b92505060206118da858286016117bd565b9150509250929050565b6000602082840312156118fa576118f9612247565b5b600082015167ffffffffffffffff81111561191857611917612242565b5b61192484828501611684565b91505092915050565b60006020828403121561194357611942612247565b5b6000611951848285016116b2565b91505092915050565b6000610140828403121561197157611970612247565b5b600061197f848285016116c7565b91505092915050565b60006020828403121561199e5761199d612247565b5b60006119ac848285016117bd565b91505092915050565b6000602082840312156119cb576119ca612247565b5b60006119d9848285016117d2565b91505092915050565b60006119ee8383611c06565b60208301905092915050565b611a03816120b3565b82525050565b6000611a1482611fef565b611a1e8185612007565b9350611a2983611fdf565b8060005b83811015611a5a578151611a4188826119e2565b9750611a4c83611ffa565b925050600181019050611a2d565b5085935050505092915050565b611a7081612108565b82525050565b611a7f8161211a565b82525050565b6000611a92601283612018565b9150611a9d8261225d565b602082019050919050565b6000611ab5601783612018565b9150611ac082612286565b602082019050919050565b6000611ad8601083612018565b9150611ae3826122af565b602082019050919050565b6000611afb600f83612018565b9150611b06826122d8565b602082019050919050565b6000611b1e601383612018565b9150611b2982612301565b602082019050919050565b6000611b41601183612018565b9150611b4c8261232a565b602082019050919050565b6000611b64601783612018565b9150611b6f82612353565b602082019050919050565b6000611b87601383612018565b9150611b928261237c565b602082019050919050565b6000611baa601383612018565b9150611bb5826123a5565b602082019050919050565b6000611bcd601a83612018565b9150611bd8826123ce565b602082019050919050565b6000611bf0601783612018565b9150611bfb826123f7565b602082019050919050565b611c0f816120f1565b82525050565b611c1e816120f1565b82525050565b611c2d816120fb565b82525050565b6000602082019050611c4860008301846119fa565b92915050565b600060e082019050611c63600083018a6119fa565b611c7060208301896119fa565b611c7d60408301886119fa565b611c8a6060830187611c15565b611c976080830186611c15565b611ca460a0830185611c15565b611cb160c0830184611a67565b98975050505050505050565b600060e082019050611cd2600083018a6119fa565b611cdf60208301896119fa565b611cec60408301886119fa565b611cf96060830187611c15565b611d066080830186611c15565b611d1360a0830185611c15565b611d2060c0830184611a76565b98975050505050505050565b600061014082019050611d42600083018d6119fa565b611d4f602083018c6119fa565b611d5c604083018b6119fa565b611d69606083018a611c15565b611d766080830189611c15565b611d8360a0830188611c15565b611d9060c0830187611c24565b611d9d60e0830186611c24565b611dab610100830185611c15565b611db9610120830184611c15565b9b9a5050505050505050505050565b6000604082019050611ddd60008301856119fa565b611dea6020830184611c15565b9392505050565b60006020820190508181036000830152611e0b8184611a09565b905092915050565b60006020820190508181036000830152611e2c81611a85565b9050919050565b60006020820190508181036000830152611e4c81611aa8565b9050919050565b60006020820190508181036000830152611e6c81611acb565b9050919050565b60006020820190508181036000830152611e8c81611aee565b9050919050565b60006020820190508181036000830152611eac81611b11565b9050919050565b60006020820190508181036000830152611ecc81611b34565b9050919050565b60006020820190508181036000830152611eec81611b57565b9050919050565b60006020820190508181036000830152611f0c81611b7a565b9050919050565b60006020820190508181036000830152611f2c81611b9d565b9050919050565b60006020820190508181036000830152611f4c81611bc0565b9050919050565b60006020820190508181036000830152611f6c81611be3565b9050919050565b6000602082019050611f886000830184611c15565b92915050565b6000611f98611fa9565b9050611fa4828261212c565b919050565b6000604051905090565b600067ffffffffffffffff821115611fce57611fcd612204565b5b602082029050602081019050919050565b6000819050602082019050919050565b600081519050919050565b6000602082019050919050565b600082825260208201905092915050565b600082825260208201905092915050565b6000612034826120f1565b915061203f836120f1565b9250827fffffffffffffffffffffffffffffffffffffffffffffffffffffffffffffffff03821115612074576120736121a6565b5b828201905092915050565b600061208a826120f1565b9150612095836120f1565b9250828210156120a8576120a76121a6565b5b828203905092915050565b60006120be826120d1565b9050919050565b60008115159050919050565b600073ffffffffffffffffffffffffffffffffffffffff82169050919050565b6000819050919050565b600060ff82169050919050565b6000612113826120fb565b9050919050565b6000612125826120fb565b9050919050565b6121358261224c565b810181811067ffffffffffffffff8211171561215457612153612204565b5b80604052505050565b6000612168826120f1565b91507fffffffffffffffffffffffffffffffffffffffffffffffffffffffffffffffff82141561219b5761219a6121a6565b5b600182019050919050565b7f4e487b7100000000000000000000000000000000000000000000000000000000600052601160045260246000fd5b7f4e487b7100000000000000000000000000000000000000000000000000000000600052603260045260246000fd5b7f4e487b7100000000000000000000000000000000000000000000000000000000600052604160045260246000fd5b600080fd5b600080fd5b600080fd5b600080fd5b600080fd5b6000601f19601f8301169050919050565b7f43574c3a20696e76616c6964206f726465720000000000000000000000000000600082015250565b7f43574c3a20696e76616c696420746f2061646472657373000000000000000000600082015250565b7f43574c3a206f6e6c792073656c6c657200000000000000000000000000000000600082015250565b7f43574c3a206f6e6c792062757965720000000000000000000000000000000000600082015250565b7f43574c3a206e6f206f70656e206f726465727300000000000000000000000000600082015250565b7f433a206e6f7420656e6f75676820555344000000000000000000000000000000600082015250565b7f43574c3a20696e73756666696369656e742066756e6473000000000000000000600082015250565b7f43574c3a2073656c6c6572206e6f742073657400000000000000000000000000600082015250565b7f43574c3a2073656c6620666f7262696464656e00000000000000000000000000600082015250565b7f43574c3a20616d6f756e742063616e6e6f7420657175616c2030000000000000600082015250565b7f43574c3a207573646320746f6b656e206e6f7420736574000000000000000000600082015250565b612429816120b3565b811461243457600080fd5b50565b612440816120c5565b811461244b57600080fd5b50565b612457816120f1565b811461246257600080fd5b50565b61246e816120fb565b811461247957600080fd5b5056fea2646970667358221220384429949a04c0a302ee679d8bb4106af0b78d73d9e21fa502eab1467e6e4a5c64736f6c63430008060033",
  "immutableReferences": {},
  "source": "// SPDX-License-Identifier: MIT\npragma solidity ^0.8.0;\n\nimport \"./Types.sol\";\nimport \"./Factory.sol\";\n\ncontract CustodianWalletLogic is Types {\n  /// @notice address of factory\n  address public factory;\n\n  function getTotalBalance() external view returns (uint256) {\n    return _getUsdcBalance();\n  }\n\n  function getOpenOrders() external view returns (uint256[] memory) {\n    return _getOpenOrders();\n  }\n\n  function _getUsdcBalance() internal view returns (uint256) {\n    return IERC20(_getEscrow().usdcToken()).balanceOf(msg.sender);\n  }\n\n  function _getEscrow() internal view returns (Escrow) {\n    return Escrow(Factory(factory).escrowContractAddress());\n  }\n\n  /// @notice when a customer buy USD with local fiat\n  function newBuyOrder(\n    address _seller,\n    address _receiver,\n    uint256 _amount,\n    uint256 _rate,\n    uint256 _fee\n  ) external returns (uint256) {\n    address usdcAddress = _getEscrow().usdcToken();\n\n    require(_seller != address(0x0), \"CWL: seller not set\");\n    require(usdcAddress != address(0x0), \"CWL: usdc token not set\");\n\n    require(\n      IERC20(usdcAddress).balanceOf(_seller) >= _amount + _fee,\n      \"C: not enough USD\"\n    );\n\n    return\n      _getEscrow().newOrder(\n        _seller, // vendor\n        address(this),\n        _receiver,\n        _amount,\n        _rate,\n        _fee,\n        0 // buy\n      );\n  }\n\n  /// @notice when a customer sell USD for local fiat to vendor\n  function newSellOrder(\n    address _buyer,\n    address _receiver,\n    uint256 _amount,\n    uint256 _rate,\n    uint256 _fee\n  ) external returns (uint256) {\n    return\n      _getEscrow().newOrder(\n        address(this),\n        _buyer, //vendor\n        _receiver,\n        _amount,\n        _rate,\n        _fee,\n        1 // sell\n      );\n  }\n\n  /// @notice returns operating balance of the seller custodian wallet (total USD balance - open orders against wallet)\n  function availBalance() external view returns (uint256) {\n    return _availBalance();\n  }\n\n  function _availBalance() internal view returns (uint256) {\n    uint256[] memory openOrders = _getOpenOrders();\n    uint256 balance = _getUsdcBalance();\n\n    for (uint256 queue = 0; queue < (openOrders.length - 1); queue++) {\n      Order memory order = _getEscrow().getOrderById(openOrders[queue]);\n      balance -= order.amount; // subtract amount of open order\n      balance -= order.fee; // subtract fee of open order\n    }\n\n    return balance;\n  }\n\n  function _getOpenOrders() internal view returns (uint256[] memory) {\n    return _getEscrow().getOpenOrdersOf(address(this));\n  }\n\n  function approveOrder(uint256 _openOrderIndex) external {\n    uint256[] memory openOrders = _getOpenOrders();\n\n    require(openOrders.length > 0, \"CWL: no open orders\");\n    uint256 _orderId = openOrders[_openOrderIndex];\n\n    Order memory order = _getEscrow().getOrderById(_orderId);\n\n    require(order.seller == address(this), \"CWL: invalid order\");\n\n    _getEscrow().closeOpenOrder(address(this), _openOrderIndex);\n\n    _sendFunds(order.receiver, order.amount, order.fee);\n\n    emit OrderFulfilled(_orderId);\n  }\n\n  function rejectOrder(uint256 _orderId) external {\n    Order memory order = _getEscrow().getOrderById(_orderId);\n\n    require(order.seller == address(this), \"CWL: only seller\");\n\n    _getEscrow().rejectOrder(address(this), _orderId);\n  }\n\n  function consentOrderRejected(uint256 _openOrderIndex) external {\n    uint256[] memory openOrders = _getOpenOrders();\n\n    uint256 _orderId = openOrders[_openOrderIndex];\n\n    Order memory order = _getEscrow().getOrderById(_orderId);\n\n    require(order.buyer == address(this), \"CWL: only buyer\");\n\n    _getEscrow().consentOrderRejected(address(this), _openOrderIndex);\n  }\n\n  function _sendFunds(\n    address _to,\n    uint256 _amount,\n    uint256 _fee\n  ) internal {\n    require(_to != address(this), \"CWL: self forbidden\");\n    require(_to != address(0x0), \"CWL: invalid to address\");\n    require(_amount > 0, \"CWL: amount cannot equal 0\");\n    require(_availBalance() >= _amount, \"CWL: insufficient funds\");\n\n    IERC20(_getEscrow().usdcToken()).transfer(_to, _amount);\n    IERC20(_getEscrow().usdcToken()).transfer(address(_getEscrow()), _fee);\n  }\n}\n",
  "sourcePath": "/Users/drewhyte/Sites/BLOCKCHAIN/go-ethereum-api/smart-contracts/contracts/CustodianWalletLogic.sol",
  "compiler": {
    "name": "solc",
    "version": "0.8.6+commit.11564f7e.Emscripten.clang"
  },
  "schemaVersion": "3.4.9",
  "updatedAt": "2022-09-14T19:18:41.330Z",
  "devdoc": {
    "kind": "dev",
    "methods": {},
    "version": 1
  },
  "userdoc": {
    "kind": "user",
    "methods": {
      "availBalance()": {
        "notice": "returns operating balance of the seller custodian wallet (total USD balance - open orders against wallet)"
      },
      "factory()": {
        "notice": "address of factory"
      },
      "newBuyOrder(address,address,uint256,uint256,uint256)": {
        "notice": "when a customer buy USD with local fiat"
      },
      "newSellOrder(address,address,uint256,uint256,uint256)": {
        "notice": "when a customer sell USD for local fiat to vendor"
      }
    },
    "version": 1
  }
}