{
  "contractName": "Escrow",
  "abi": [
    {
      "inputs": [
        {
          "internalType": "address",
          "name": "_ochestrator",
          "type": "address"
        }
      ],
      "stateMutability": "nonpayable",
      "type": "constructor"
    },
    {
      "anonymous": false,
      "inputs": [
        {
          "indexed": false,
          "internalType": "uint256",
          "name": "orderId",
          "type": "uint256"
        }
      ],
      "name": "ApproveRejectedOrder",
      "type": "event"
    },
    {
      "anonymous": false,
      "inputs": [
        {
          "indexed": false,
          "internalType": "uint256",
          "name": "orderId",
          "type": "uint256"
        },
        {
          "indexed": true,
          "internalType": "address",
          "name": "seller",
          "type": "address"
        },
        {
          "indexed": true,
          "internalType": "address",
          "name": "buyer",
          "type": "address"
        },
        {
          "indexed": true,
          "internalType": "address",
          "name": "receiver",
          "type": "address"
        },
        {
          "indexed": false,
          "internalType": "uint256",
          "name": "amount",
          "type": "uint256"
        },
        {
          "indexed": false,
          "internalType": "uint256",
          "name": "rate",
          "type": "uint256"
        },
        {
          "indexed": false,
          "internalType": "uint256",
          "name": "fee",
          "type": "uint256"
        },
        {
          "indexed": false,
          "internalType": "uint8",
          "name": "orderType",
          "type": "uint8"
        },
        {
          "indexed": false,
          "internalType": "uint256",
          "name": "fulfiledTime",
          "type": "uint256"
        },
        {
          "indexed": false,
          "internalType": "uint8",
          "name": "orderStatus",
          "type": "uint8"
        }
      ],
      "name": "ClosedOrder",
      "type": "event"
    },
    {
      "anonymous": false,
      "inputs": [
        {
          "indexed": false,
          "internalType": "uint256",
          "name": "orderId",
          "type": "uint256"
        },
        {
          "indexed": true,
          "internalType": "address",
          "name": "seller",
          "type": "address"
        },
        {
          "indexed": true,
          "internalType": "address",
          "name": "buyer",
          "type": "address"
        },
        {
          "indexed": true,
          "internalType": "address",
          "name": "receiver",
          "type": "address"
        },
        {
          "indexed": false,
          "internalType": "uint256",
          "name": "amount",
          "type": "uint256"
        },
        {
          "indexed": false,
          "internalType": "uint256",
          "name": "rate",
          "type": "uint256"
        },
        {
          "indexed": false,
          "internalType": "uint256",
          "name": "fee",
          "type": "uint256"
        },
        {
          "indexed": false,
          "internalType": "uint8",
          "name": "orderType",
          "type": "uint8"
        },
        {
          "indexed": false,
          "internalType": "uint8",
          "name": "orderStatus",
          "type": "uint8"
        }
      ],
      "name": "OpenOrder",
      "type": "event"
    },
    {
      "anonymous": false,
      "inputs": [
        {
          "indexed": false,
          "internalType": "uint256",
          "name": "orderId",
          "type": "uint256"
        }
      ],
      "name": "OrderFulfilled",
      "type": "event"
    },
    {
      "anonymous": false,
      "inputs": [
        {
          "indexed": false,
          "internalType": "uint256",
          "name": "orderId",
          "type": "uint256"
        }
      ],
      "name": "RejectedOrder",
      "type": "event"
    },
    {
      "inputs": [],
      "name": "ochestrator",
      "outputs": [
        {
          "internalType": "address",
          "name": "",
          "type": "address"
        }
      ],
      "stateMutability": "view",
      "type": "function"
    },
    {
      "inputs": [
        {
          "internalType": "address",
          "name": "",
          "type": "address"
        },
        {
          "internalType": "uint256",
          "name": "",
          "type": "uint256"
        }
      ],
      "name": "openOrders",
      "outputs": [
        {
          "internalType": "uint256",
          "name": "",
          "type": "uint256"
        }
      ],
      "stateMutability": "view",
      "type": "function"
    },
    {
      "inputs": [
        {
          "internalType": "uint256",
          "name": "",
          "type": "uint256"
        }
      ],
      "name": "orders",
      "outputs": [
        {
          "internalType": "address",
          "name": "seller",
          "type": "address"
        },
        {
          "internalType": "address",
          "name": "buyer",
          "type": "address"
        },
        {
          "internalType": "address",
          "name": "receiver",
          "type": "address"
        },
        {
          "internalType": "uint256",
          "name": "amount",
          "type": "uint256"
        },
        {
          "internalType": "uint256",
          "name": "rate",
          "type": "uint256"
        },
        {
          "internalType": "uint256",
          "name": "fee",
          "type": "uint256"
        },
        {
          "internalType": "uint8",
          "name": "orderType",
          "type": "uint8"
        },
        {
          "internalType": "uint8",
          "name": "orderStatus",
          "type": "uint8"
        },
        {
          "internalType": "uint256",
          "name": "startTime",
          "type": "uint256"
        },
        {
          "internalType": "uint256",
          "name": "fulfiledTime",
          "type": "uint256"
        }
      ],
      "stateMutability": "view",
      "type": "function"
    },
    {
      "inputs": [],
      "name": "usdcToken",
      "outputs": [
        {
          "internalType": "address",
          "name": "",
          "type": "address"
        }
      ],
      "stateMutability": "view",
      "type": "function"
    },
    {
      "inputs": [
        {
          "internalType": "address",
          "name": "_seller",
          "type": "address"
        },
        {
          "internalType": "address",
          "name": "_buyer",
          "type": "address"
        },
        {
          "internalType": "address",
          "name": "_receiver",
          "type": "address"
        },
        {
          "internalType": "uint256",
          "name": "_amount",
          "type": "uint256"
        },
        {
          "internalType": "uint256",
          "name": "_rate",
          "type": "uint256"
        },
        {
          "internalType": "uint256",
          "name": "_fee",
          "type": "uint256"
        },
        {
          "internalType": "uint8",
          "name": "_orderType",
          "type": "uint8"
        }
      ],
      "name": "newOrder",
      "outputs": [
        {
          "internalType": "uint256",
          "name": "",
          "type": "uint256"
        }
      ],
      "stateMutability": "nonpayable",
      "type": "function"
    },
    {
      "inputs": [
        {
          "internalType": "address",
          "name": "_seller",
          "type": "address"
        }
      ],
      "name": "numberOfOpenOrders",
      "outputs": [
        {
          "internalType": "uint256",
          "name": "",
          "type": "uint256"
        }
      ],
      "stateMutability": "view",
      "type": "function"
    },
    {
      "inputs": [
        {
          "internalType": "address",
          "name": "_seller",
          "type": "address"
        }
      ],
      "name": "getOpenOrdersOf",
      "outputs": [
        {
          "internalType": "uint256[]",
          "name": "",
          "type": "uint256[]"
        }
      ],
      "stateMutability": "view",
      "type": "function"
    },
    {
      "inputs": [
        {
          "internalType": "uint256",
          "name": "_orderId",
          "type": "uint256"
        }
      ],
      "name": "getOrderById",
      "outputs": [
        {
          "components": [
            {
              "internalType": "address",
              "name": "seller",
              "type": "address"
            },
            {
              "internalType": "address",
              "name": "buyer",
              "type": "address"
            },
            {
              "internalType": "address",
              "name": "receiver",
              "type": "address"
            },
            {
              "internalType": "uint256",
              "name": "amount",
              "type": "uint256"
            },
            {
              "internalType": "uint256",
              "name": "rate",
              "type": "uint256"
            },
            {
              "internalType": "uint256",
              "name": "fee",
              "type": "uint256"
            },
            {
              "internalType": "uint8",
              "name": "orderType",
              "type": "uint8"
            },
            {
              "internalType": "uint8",
              "name": "orderStatus",
              "type": "uint8"
            },
            {
              "internalType": "uint256",
              "name": "startTime",
              "type": "uint256"
            },
            {
              "internalType": "uint256",
              "name": "fulfiledTime",
              "type": "uint256"
            }
          ],
          "internalType": "struct Types.Order",
          "name": "",
          "type": "tuple"
        }
      ],
      "stateMutability": "view",
      "type": "function"
    },
    {
      "inputs": [
        {
          "internalType": "address",
          "name": "_seller",
          "type": "address"
        },
        {
          "internalType": "uint256",
          "name": "_orderIndex",
          "type": "uint256"
        }
      ],
      "name": "closeOpenOrder",
      "outputs": [],
      "stateMutability": "nonpayable",
      "type": "function"
    },
    {
      "inputs": [
        {
          "internalType": "address",
          "name": "usdcContractAddress",
          "type": "address"
        }
      ],
      "name": "setUsdcTokenAddress",
      "outputs": [],
      "stateMutability": "nonpayable",
      "type": "function"
    },
    {
      "inputs": [],
      "name": "withdrawFeesEarned",
      "outputs": [],
      "stateMutability": "nonpayable",
      "type": "function"
    },
    {
      "inputs": [
        {
          "internalType": "address",
          "name": "_seller",
          "type": "address"
        },
        {
          "internalType": "uint256",
          "name": "_orderId",
          "type": "uint256"
        }
      ],
      "name": "rejectOrder",
      "outputs": [],
      "stateMutability": "nonpayable",
      "type": "function"
    },
    {
      "inputs": [
        {
          "internalType": "address",
          "name": "_buyer",
          "type": "address"
        },
        {
          "internalType": "uint256",
          "name": "_orderIndex",
          "type": "uint256"
        }
      ],
      "name": "consentOrderRejected",
      "outputs": [],
      "stateMutability": "nonpayable",
      "type": "function"
    }
  ],
  "bytecode": "0x60806040523480156200001157600080fd5b5060405162002105380380620021058339818101604052810190620000379190620002aa565b80600260006101000a81548173ffffffffffffffffffffffffffffffffffffffff021916908373ffffffffffffffffffffffffffffffffffffffff1602179055506000604051806101400160405280600073ffffffffffffffffffffffffffffffffffffffff168152602001600073ffffffffffffffffffffffffffffffffffffffff168152602001600073ffffffffffffffffffffffffffffffffffffffff168152602001600081526020016000815260200160008152602001600060ff168152602001600160ff168152602001428152602001428152509050600081908060018154018082558091505060019003906000526020600020906009020160009091909190915060008201518160000160006101000a81548173ffffffffffffffffffffffffffffffffffffffff021916908373ffffffffffffffffffffffffffffffffffffffff16021790555060208201518160010160006101000a81548173ffffffffffffffffffffffffffffffffffffffff021916908373ffffffffffffffffffffffffffffffffffffffff16021790555060408201518160020160006101000a81548173ffffffffffffffffffffffffffffffffffffffff021916908373ffffffffffffffffffffffffffffffffffffffff160217905550606082015181600301556080820151816004015560a0820151816005015560c08201518160060160006101000a81548160ff021916908360ff16021790555060e08201518160060160016101000a81548160ff021916908360ff16021790555061010082015181600701556101208201518160080155505050506200032f565b600081519050620002a48162000315565b92915050565b600060208284031215620002c357620002c262000310565b5b6000620002d38482850162000293565b91505092915050565b6000620002e982620002f0565b9050919050565b600073ffffffffffffffffffffffffffffffffffffffff82169050919050565b600080fd5b6200032081620002dc565b81146200032c57600080fd5b50565b611dc6806200033f6000396000f3fe608060405234801561001057600080fd5b50600436106100ec576000357c0100000000000000000000000000000000000000000000000000000000900480636dee2032116100a9578063b00f215c11610083578063b00f215c1461024c578063b1fab21c14610268578063ef3bbbff14610298578063f3fd622f146102b4576100ec565b80636dee2032146101c55780639c811d43146101f5578063a85c38ef14610213576100ec565b806311a21b2c146100f157806311eac855146100fb5780631e7cea8014610119578063240f41601461014957806332c011171461016557806342b50a7a14610195575b600080fd5b6100f96102d0565b005b61010361051c565b604051610110919061182d565b60405180910390f35b610133600480360381019061012e91906114e9565b610542565b6040516101409190611a0b565b60405180910390f35b610163600480360381019061015e91906114e9565b610573565b005b61017f600480360381019061017a919061141a565b610660565b60405161018c9190611a0b565b60405180910390f35b6101af60048036038101906101aa9190611556565b6106ac565b6040516101bc91906119ef565b60405180910390f35b6101df60048036038101906101da919061141a565b610857565b6040516101ec919061190d565b60405180910390f35b6101fd6108ee565b60405161020a919061182d565b60405180910390f35b61022d60048036038101906102289190611556565b610914565b6040516102439a99989796959493929190611848565b60405180910390f35b610266600480360381019061026191906114e9565b6109f2565b005b610282600480360381019061027d9190611447565b610c97565b60405161028f9190611a0b565b60405180910390f35b6102b260048036038101906102ad91906114e9565b611069565b005b6102ce60048036038101906102c9919061141a565b6111d2565b005b600260009054906101000a900473ffffffffffffffffffffffffffffffffffffffff1673ffffffffffffffffffffffffffffffffffffffff163373ffffffffffffffffffffffffffffffffffffffff1614610360576040517f08c379a0000000000000000000000000000000000000000000000000000000008152600401610357906119cf565b60405180910390fd5b6000600360009054906101000a900473ffffffffffffffffffffffffffffffffffffffff1673ffffffffffffffffffffffffffffffffffffffff166370a08231306040518263ffffffff167c01000000000000000000000000000000000000000000000000000000000281526004016103d9919061182d565b60206040518083038186803b1580156103f157600080fd5b505afa158015610405573d6000803e3d6000fd5b505050506040513d601f19601f820116820180604052508101906104299190611583565b9050600360009054906101000a900473ffffffffffffffffffffffffffffffffffffffff1673ffffffffffffffffffffffffffffffffffffffff1663a9059cbb600260009054906101000a900473ffffffffffffffffffffffffffffffffffffffff16836040518363ffffffff167c01000000000000000000000000000000000000000000000000000000000281526004016104c69291906118e4565b602060405180830381600087803b1580156104e057600080fd5b505af11580156104f4573d6000803e3d6000fd5b505050506040513d601f19601f820116820180604052508101906105189190611529565b5050565b600360009054906101000a900473ffffffffffffffffffffffffffffffffffffffff1681565b6001602052816000526040600020818154811061055e57600080fd5b90600052602060002001600091509150505481565b8173ffffffffffffffffffffffffffffffffffffffff163373ffffffffffffffffffffffffffffffffffffffff16146105e1576040517f08c379a00000000000000000000000000000000000000000000000000000000081526004016105d89061196f565b60405180910390fd5b60008082815481106105f6576105f5611c0a565b5b9060005260206000209060090201905060048160060160016101000a81548160ff021916908360ff1602179055507fbd551ca6c38e2ad16afa16c81fcb4b8e891315559bfb80f551ab6b66cb583dbd826040516106539190611a0b565b60405180910390a1505050565b6000600160008373ffffffffffffffffffffffffffffffffffffffff1673ffffffffffffffffffffffffffffffffffffffff168152602001908152602001600020805490509050919050565b6106b4611316565b600082815481106106c8576106c7611c0a565b5b9060005260206000209060090201604051806101400160405290816000820160009054906101000a900473ffffffffffffffffffffffffffffffffffffffff1673ffffffffffffffffffffffffffffffffffffffff1673ffffffffffffffffffffffffffffffffffffffff1681526020016001820160009054906101000a900473ffffffffffffffffffffffffffffffffffffffff1673ffffffffffffffffffffffffffffffffffffffff1673ffffffffffffffffffffffffffffffffffffffff1681526020016002820160009054906101000a900473ffffffffffffffffffffffffffffffffffffffff1673ffffffffffffffffffffffffffffffffffffffff1673ffffffffffffffffffffffffffffffffffffffff1681526020016003820154815260200160048201548152602001600582015481526020016006820160009054906101000a900460ff1660ff1660ff1681526020016006820160019054906101000a900460ff1660ff1660ff168152602001600782015481526020016008820154815250509050919050565b6060600160008373ffffffffffffffffffffffffffffffffffffffff1673ffffffffffffffffffffffffffffffffffffffff1681526020019081526020016000208054806020026020016040519081016040528092919081815260200182805480156108e257602002820191906000526020600020905b8154815260200190600101908083116108ce575b50505050509050919050565b600260009054906101000a900473ffffffffffffffffffffffffffffffffffffffff1681565b6000818154811061092457600080fd5b90600052602060002090600902016000915090508060000160009054906101000a900473ffffffffffffffffffffffffffffffffffffffff16908060010160009054906101000a900473ffffffffffffffffffffffffffffffffffffffff16908060020160009054906101000a900473ffffffffffffffffffffffffffffffffffffffff16908060030154908060040154908060050154908060060160009054906101000a900460ff16908060060160019054906101000a900460ff1690806007015490806008015490508a565b8173ffffffffffffffffffffffffffffffffffffffff163373ffffffffffffffffffffffffffffffffffffffff1614610a60576040517f08c379a0000000000000000000000000000000000000000000000000000000008152600401610a579061196f565b60405180910390fd5b6000600160008473ffffffffffffffffffffffffffffffffffffffff1673ffffffffffffffffffffffffffffffffffffffff1681526020019081526020016000208281548110610ab357610ab2611c0a565b5b90600052602060002001549050600160008473ffffffffffffffffffffffffffffffffffffffff1673ffffffffffffffffffffffffffffffffffffffff1681526020019081526020016000208281548110610b1157610b10611c0a565b5b90600052602060002001600090556000808281548110610b3457610b33611c0a565b5b9060005260206000209060090201905042816008018190555060018160060160016101000a81548160ff021916908360ff1602179055508060020160009054906101000a900473ffffffffffffffffffffffffffffffffffffffff1673ffffffffffffffffffffffffffffffffffffffff168160010160009054906101000a900473ffffffffffffffffffffffffffffffffffffffff1673ffffffffffffffffffffffffffffffffffffffff168260000160009054906101000a900473ffffffffffffffffffffffffffffffffffffffff1673ffffffffffffffffffffffffffffffffffffffff167f7296e5ad5c0ce57fe4cbceb3362886c7162b073357dd6b39025453458f6f8482858560030154866004015487600501548860060160009054906101000a900460ff1689600801548a60060160019054906101000a900460ff16604051610c899796959493929190611a87565b60405180910390a450505050565b60008673ffffffffffffffffffffffffffffffffffffffff163373ffffffffffffffffffffffffffffffffffffffff1614610d07576040517f08c379a0000000000000000000000000000000000000000000000000000000008152600401610cfe9061192f565b60405180910390fd5b60008511610d4a576040517f08c379a0000000000000000000000000000000000000000000000000000000008152600401610d419061194f565b60405180910390fd5b60006040518061014001604052808a73ffffffffffffffffffffffffffffffffffffffff1681526020018973ffffffffffffffffffffffffffffffffffffffff1681526020018873ffffffffffffffffffffffffffffffffffffffff1681526020018781526020018681526020018581526020018460ff168152602001600060ff16815260200142815260200160008152509050600081908060018154018082558091505060019003906000526020600020906009020160009091909190915060008201518160000160006101000a81548173ffffffffffffffffffffffffffffffffffffffff021916908373ffffffffffffffffffffffffffffffffffffffff16021790555060208201518160010160006101000a81548173ffffffffffffffffffffffffffffffffffffffff021916908373ffffffffffffffffffffffffffffffffffffffff16021790555060408201518160020160006101000a81548173ffffffffffffffffffffffffffffffffffffffff021916908373ffffffffffffffffffffffffffffffffffffffff160217905550606082015181600301556080820151816004015560a0820151816005015560c08201518160060160006101000a81548160ff021916908360ff16021790555060e08201518160060160016101000a81548160ff021916908360ff16021790555061010082015181600701556101208201518160080155505060006001600080549050610f6b9190611b40565b9050600160008b73ffffffffffffffffffffffffffffffffffffffff1673ffffffffffffffffffffffffffffffffffffffff1681526020019081526020016000208190806001815401808255809150506001900390600052602060002001600090919091909150558773ffffffffffffffffffffffffffffffffffffffff168973ffffffffffffffffffffffffffffffffffffffff168b73ffffffffffffffffffffffffffffffffffffffff167e23c8dda5a5d69bbdf1f810b48e0b0fff6827cca652b18c81b25d8759bf67f2848b8b8b8b600060405161105196959493929190611a26565b60405180910390a48092505050979650505050505050565b8173ffffffffffffffffffffffffffffffffffffffff163373ffffffffffffffffffffffffffffffffffffffff16146110d7576040517f08c379a00000000000000000000000000000000000000000000000000000000081526004016110ce906119af565b60405180910390fd5b6000600160008473ffffffffffffffffffffffffffffffffffffffff1673ffffffffffffffffffffffffffffffffffffffff168152602001908152602001600020828154811061112a57611129611c0a565b5b90600052602060002001549050600160008473ffffffffffffffffffffffffffffffffffffffff1673ffffffffffffffffffffffffffffffffffffffff168152602001908152602001600020828154811061118857611187611c0a565b5b90600052602060002001600090557f6526538f9bd98d105bdfc50096f40172dea60988b982f7776fa03d816600eac8816040516111c59190611a0b565b60405180910390a1505050565b600260009054906101000a900473ffffffffffffffffffffffffffffffffffffffff1673ffffffffffffffffffffffffffffffffffffffff163373ffffffffffffffffffffffffffffffffffffffff1614611262576040517f08c379a0000000000000000000000000000000000000000000000000000000008152600401611259906119cf565b60405180910390fd5b600073ffffffffffffffffffffffffffffffffffffffff168173ffffffffffffffffffffffffffffffffffffffff1614156112d2576040517f08c379a00000000000000000000000000000000000000000000000000000000081526004016112c99061198f565b60405180910390fd5b80600360006101000a81548173ffffffffffffffffffffffffffffffffffffffff021916908373ffffffffffffffffffffffffffffffffffffffff16021790555050565b604051806101400160405280600073ffffffffffffffffffffffffffffffffffffffff168152602001600073ffffffffffffffffffffffffffffffffffffffff168152602001600073ffffffffffffffffffffffffffffffffffffffff168152602001600081526020016000815260200160008152602001600060ff168152602001600060ff16815260200160008152602001600081525090565b6000813590506113c081611d34565b92915050565b6000815190506113d581611d4b565b92915050565b6000813590506113ea81611d62565b92915050565b6000815190506113ff81611d62565b92915050565b60008135905061141481611d79565b92915050565b6000602082840312156114305761142f611c39565b5b600061143e848285016113b1565b91505092915050565b600080600080600080600060e0888a03121561146657611465611c39565b5b60006114748a828b016113b1565b97505060206114858a828b016113b1565b96505060406114968a828b016113b1565b95505060606114a78a828b016113db565b94505060806114b88a828b016113db565b93505060a06114c98a828b016113db565b92505060c06114da8a828b01611405565b91505092959891949750929550565b60008060408385031215611500576114ff611c39565b5b600061150e858286016113b1565b925050602061151f858286016113db565b9150509250929050565b60006020828403121561153f5761153e611c39565b5b600061154d848285016113c6565b91505092915050565b60006020828403121561156c5761156b611c39565b5b600061157a848285016113db565b91505092915050565b60006020828403121561159957611598611c39565b5b60006115a7848285016113f0565b91505092915050565b60006115bc83836117f1565b60208301905092915050565b6115d181611b74565b82525050565b6115e081611b74565b82525050565b60006115f182611b06565b6115fb8185611b1e565b935061160683611af6565b8060005b8381101561163757815161161e88826115b0565b975061162983611b11565b92505060018101905061160a565b5085935050505092915050565b61164d81611bc9565b82525050565b6000611660601083611b2f565b915061166b82611c3e565b602082019050919050565b6000611683601083611b2f565b915061168e82611c67565b602082019050919050565b60006116a6600e83611b2f565b91506116b182611c90565b602082019050919050565b60006116c9601283611b2f565b91506116d482611cb9565b602082019050919050565b60006116ec600d83611b2f565b91506116f782611ce2565b602082019050919050565b600061170f601383611b2f565b915061171a82611d0b565b602082019050919050565b6101408201600082015161173c60008501826115c8565b50602082015161174f60208501826115c8565b50604082015161176260408501826115c8565b50606082015161177560608501826117f1565b50608082015161178860808501826117f1565b5060a082015161179b60a08501826117f1565b5060c08201516117ae60c085018261180f565b5060e08201516117c160e085018261180f565b506101008201516117d66101008501826117f1565b506101208201516117eb6101208501826117f1565b50505050565b6117fa81611bb2565b82525050565b61180981611bb2565b82525050565b61181881611bbc565b82525050565b61182781611bbc565b82525050565b600060208201905061184260008301846115d7565b92915050565b60006101408201905061185e600083018d6115d7565b61186b602083018c6115d7565b611878604083018b6115d7565b611885606083018a611800565b6118926080830189611800565b61189f60a0830188611800565b6118ac60c083018761181e565b6118b960e083018661181e565b6118c7610100830185611800565b6118d5610120830184611800565b9b9a5050505050505050505050565b60006040820190506118f960008301856115d7565b6119066020830184611800565b9392505050565b6000602082019050818103600083015261192781846115e6565b905092915050565b6000602082019050818103600083015261194881611653565b9050919050565b6000602082019050818103600083015261196881611676565b9050919050565b6000602082019050818103600083015261198881611699565b9050919050565b600060208201905081810360008301526119a8816116bc565b9050919050565b600060208201905081810360008301526119c8816116df565b9050919050565b600060208201905081810360008301526119e881611702565b9050919050565b600061014082019050611a056000830184611725565b92915050565b6000602082019050611a206000830184611800565b92915050565b600060c082019050611a3b6000830189611800565b611a486020830188611800565b611a556040830187611800565b611a626060830186611800565b611a6f608083018561181e565b611a7c60a0830184611644565b979650505050505050565b600060e082019050611a9c600083018a611800565b611aa96020830189611800565b611ab66040830188611800565b611ac36060830187611800565b611ad0608083018661181e565b611add60a0830185611800565b611aea60c083018461181e565b98975050505050505050565b6000819050602082019050919050565b600081519050919050565b6000602082019050919050565b600082825260208201905092915050565b600082825260208201905092915050565b6000611b4b82611bb2565b9150611b5683611bb2565b925082821015611b6957611b68611bdb565b5b828203905092915050565b6000611b7f82611b92565b9050919050565b60008115159050919050565b600073ffffffffffffffffffffffffffffffffffffffff82169050919050565b6000819050919050565b600060ff82169050919050565b6000611bd482611bbc565b9050919050565b7f4e487b7100000000000000000000000000000000000000000000000000000000600052601160045260246000fd5b7f4e487b7100000000000000000000000000000000000000000000000000000000600052603260045260246000fd5b600080fd5b7f433a20637573746f6d6572206f6e6c7900000000000000000000000000000000600082015250565b7f433a20696e76616c6964206f7264657200000000000000000000000000000000600082015250565b7f433a206f6e6c792073656c6c6572000000000000000000000000000000000000600082015250565b7f463a20696e76616c696420616464726573730000000000000000000000000000600082015250565b7f433a206f6e6c7920627579657200000000000000000000000000000000000000600082015250565b7f463a206f6e6c79206f63686573747261746f7200000000000000000000000000600082015250565b611d3d81611b74565b8114611d4857600080fd5b50565b611d5481611b86565b8114611d5f57600080fd5b50565b611d6b81611bb2565b8114611d7657600080fd5b50565b611d8281611bbc565b8114611d8d57600080fd5b5056fea26469706673582212206e19e58d554e34a3bd6c88b316e9394750d07f414d4762c75714d3c1a245f3e964736f6c63430008060033",
  "immutableReferences": {},
  "source": "// SPDX-License-Identifier: MIT\npragma solidity ^0.8.0;\n\nimport \"@openzeppelin/contracts/token/ERC20/IERC20.sol\";\nimport \"./Types.sol\";\n\ncontract Escrow is Types {\n  ////////////////////////////////////////\n  //                                    //\n  //         STATE VARIABLES            //\n  //                                    //\n  ////////////////////////////////////////\n\n  /// @notice EOA of deployer wallet\n  address public ochestrator;\n\n  /// @notice address of accepted USDC on deployed chain\n  address public usdcToken;\n\n  ////////////////////////////////////////\n  //                                    //\n  //              FUNCTIONS             //\n  //                                    //\n  ////////////////////////////////////////\n  modifier onlyOchesrator() {\n    require(msg.sender == ochestrator, \"F: only ochestrator\");\n    _;\n  }\n\n  constructor(address _ochestrator) {\n    ochestrator = _ochestrator;\n\n    //Create default order on zero index\n    Order memory order = Order(\n      address(0x0), // seller\n      address(0x0), // buyer\n      address(0x0), // receiver\n      0,\n      0,\n      0,\n      0,\n      1, // closed\n      block.timestamp, // startTime\n      block.timestamp // fulfilledTime\n    );\n\n    orders.push(order);\n  }\n\n  /**\n   * @param _seller is the address of the vendor\n   * @param _buyer is the address of the customer\n   * @param _amount is the amount of USD to be transferred plus fees (18 decimals)\n   * @param _rate is the rate to buy usdc against customer fiat\n   * @param _fee is the amount of fees to be paid to the escrow to be minus from _amount (18 decimals)\n   * @param _orderType is the type of order (0: buy, 1: sell)\n   */\n  function newOrder(\n    address _seller,\n    address _buyer,\n    address _receiver,\n    uint256 _amount,\n    uint256 _rate,\n    uint256 _fee,\n    uint8 _orderType\n  ) public returns (uint256) {\n    require(msg.sender == _buyer, \"C: customer only\");\n    require(_amount > 0, \"C: invalid order\");\n\n    Order memory order = Order(\n      _seller,\n      _buyer,\n      _receiver,\n      _amount,\n      _rate,\n      _fee,\n      _orderType,\n      0, // open\n      block.timestamp,\n      0\n    );\n\n    orders.push(order);\n\n    uint256 orderId = orders.length - 1;\n\n    openOrders[_seller].push(orderId);\n\n    emit OpenOrder(\n      orderId,\n      _seller,\n      _buyer,\n      _receiver,\n      _amount,\n      _rate,\n      _fee,\n      _orderType,\n      0 // open\n    );\n\n    return orderId;\n  }\n\n  function numberOfOpenOrders(address _seller) public view returns (uint256) {\n    return openOrders[_seller].length;\n  }\n\n  function getOpenOrdersOf(address _seller)\n    public\n    view\n    returns (uint256[] memory)\n  {\n    return openOrders[_seller];\n  }\n\n  function getOrderById(uint256 _orderId) public view returns (Order memory) {\n    return orders[_orderId];\n  }\n\n  function closeOpenOrder(address _seller, uint256 _orderIndex) public {\n    require(msg.sender == _seller, \"C: only seller\");\n\n    uint256 _orderId = openOrders[_seller][_orderIndex];\n\n    delete openOrders[_seller][_orderIndex];\n\n    Order storage order = orders[_orderId];\n\n    order.fulfiledTime = block.timestamp;\n    order.orderStatus = 1; // closed\n\n    emit ClosedOrder(\n      _orderId,\n      order.seller,\n      order.buyer,\n      order.receiver,\n      order.amount,\n      order.rate,\n      order.fee,\n      order.orderType,\n      order.fulfiledTime,\n      order.orderStatus\n    );\n  }\n\n  /**\n   * @dev allow deployer to update of USD Token contract address\n   * @param usdcContractAddress is the address of the chosen stabel currency to accepted\n   * Note use with caution, once a certain USD token is accepted changing will make the other USD token stuck\n   */\n  function setUsdcTokenAddress(address usdcContractAddress)\n    public\n    onlyOchesrator\n  {\n    require(usdcContractAddress != address(0x0), \"F: invalid address\");\n    usdcToken = usdcContractAddress;\n  }\n\n  /**\n   * @dev allow deployer to withdraw all fees earned from escrow\n   */\n  function withdrawFeesEarned() public onlyOchesrator {\n    uint256 totalFeeEarned = IERC20(usdcToken).balanceOf(address(this));\n\n    IERC20(usdcToken).transfer(ochestrator, totalFeeEarned);\n  }\n\n  function rejectOrder(address _seller, uint256 _orderId) public {\n    require(msg.sender == _seller, \"C: only seller\");\n\n    Order storage order = orders[_orderId];\n\n    order.orderStatus = 4; // rejected\n\n    emit RejectedOrder(_orderId);\n  }\n\n  function consentOrderRejected(address _buyer, uint256 _orderIndex) public {\n    require(msg.sender == _buyer, \"C: only buyer\");\n\n    uint256 _orderId = openOrders[_buyer][_orderIndex];\n\n    delete openOrders[_buyer][_orderIndex];\n\n    emit ApproveRejectedOrder(_orderId);\n  }\n}\n",
  "sourcePath": "/Users/drewhyte/Sites/BLOCKCHAIN/go-ethereum-api/smart-contracts/contracts/Escrow.sol",
  "compiler": {
    "name": "solc",
    "version": "0.8.6+commit.11564f7e.Emscripten.clang"
  },
  "schemaVersion": "3.4.9",
  "updatedAt": "2022-09-14T19:18:41.466Z",
  "devdoc": {
    "kind": "dev",
    "methods": {
      "newOrder(address,address,address,uint256,uint256,uint256,uint8)": {
        "params": {
          "_amount": "is the amount of USD to be transferred plus fees (18 decimals)",
          "_buyer": "is the address of the customer",
          "_fee": "is the amount of fees to be paid to the escrow to be minus from _amount (18 decimals)",
          "_orderType": "is the type of order (0: buy, 1: sell)",
          "_rate": "is the rate to buy usdc against customer fiat",
          "_seller": "is the address of the vendor"
        }
      },
      "setUsdcTokenAddress(address)": {
        "details": "allow deployer to update of USD Token contract address",
        "params": {
          "usdcContractAddress": "is the address of the chosen stabel currency to accepted Note use with caution, once a certain USD token is accepted changing will make the other USD token stuck"
        }
      },
      "withdrawFeesEarned()": {
        "details": "allow deployer to withdraw all fees earned from escrow"
      }
    },
    "version": 1
  },
  "userdoc": {
    "kind": "user",
    "methods": {
      "ochestrator()": {
        "notice": "EOA of deployer wallet"
      },
      "usdcToken()": {
        "notice": "address of accepted USDC on deployed chain"
      }
    },
    "version": 1
  }
}