{
  "contractName": "Factory",
  "abi": [
    {
      "inputs": [],
      "stateMutability": "nonpayable",
      "type": "constructor"
    },
    {
      "anonymous": false,
      "inputs": [
        {
          "indexed": false,
          "internalType": "string",
          "name": "uniqueId",
          "type": "string"
        },
        {
          "indexed": true,
          "internalType": "address",
          "name": "account",
          "type": "address"
        }
      ],
      "name": "NewCustodian",
      "type": "event"
    },
    {
      "inputs": [
        {
          "internalType": "string",
          "name": "",
          "type": "string"
        }
      ],
      "name": "accounts",
      "outputs": [
        {
          "internalType": "address",
          "name": "",
          "type": "address"
        }
      ],
      "stateMutability": "view",
      "type": "function"
    },
    {
      "inputs": [],
      "name": "custodianWalletLogic",
      "outputs": [
        {
          "internalType": "address",
          "name": "",
          "type": "address"
        }
      ],
      "stateMutability": "view",
      "type": "function"
    },
    {
      "inputs": [],
      "name": "escrowContractAddress",
      "outputs": [
        {
          "internalType": "address",
          "name": "",
          "type": "address"
        }
      ],
      "stateMutability": "view",
      "type": "function"
    },
    {
      "inputs": [],
      "name": "ochestrator",
      "outputs": [
        {
          "internalType": "address",
          "name": "",
          "type": "address"
        }
      ],
      "stateMutability": "view",
      "type": "function"
    },
    {
      "inputs": [
        {
          "internalType": "string",
          "name": "uuid",
          "type": "string"
        }
      ],
      "name": "newCustodian",
      "outputs": [
        {
          "internalType": "string",
          "name": "",
          "type": "string"
        },
        {
          "internalType": "address",
          "name": "",
          "type": "address"
        }
      ],
      "stateMutability": "nonpayable",
      "type": "function"
    }
  ],
  "bytecode": "0x608060405234801561001057600080fd5b50336000806101000a81548173ffffffffffffffffffffffffffffffffffffffff021916908373ffffffffffffffffffffffffffffffffffffffff1602179055503360405161005e90610133565b610068919061015c565b604051809103906000f080158015610084573d6000803e3d6000fd5b50600260006101000a81548173ffffffffffffffffffffffffffffffffffffffff021916908373ffffffffffffffffffffffffffffffffffffffff1602179055506040516100d190610140565b604051809103906000f0801580156100ed573d6000803e3d6000fd5b50600160006101000a81548173ffffffffffffffffffffffffffffffffffffffff021916908373ffffffffffffffffffffffffffffffffffffffff1602179055506101a9565b6121058061140e83390190565b6124d28061351383390190565b61015681610177565b82525050565b6000602082019050610171600083018461014d565b92915050565b600061018282610189565b9050919050565b600073ffffffffffffffffffffffffffffffffffffffff82169050919050565b611256806101b86000396000f3fe608060405234801561001057600080fd5b5060043610610074576000357c010000000000000000000000000000000000000000000000000000000090048063303904141461007957806333a676ed146100a95780639b7fbea6146100c75780639c811d43146100f8578063d226ae0814610116575b600080fd5b610093600480360381019061008e91906104df565b610134565b6040516100a091906105fe565b60405180910390f35b6100b161017d565b6040516100be91906105fe565b60405180910390f35b6100e160048036038101906100dc91906104df565b6101a3565b6040516100ef929190610672565b60405180910390f35b610100610418565b60405161010d91906105fe565b60405180910390f35b61011e61043c565b60405161012b91906105fe565b60405180910390f35b6003818051602081018201805184825260208301602085012081835280955050505050506000915054906101000a900473ffffffffffffffffffffffffffffffffffffffff1681565b600160009054906101000a900473ffffffffffffffffffffffffffffffffffffffff1681565b606060008060009054906101000a900473ffffffffffffffffffffffffffffffffffffffff1673ffffffffffffffffffffffffffffffffffffffff163373ffffffffffffffffffffffffffffffffffffffff1614610236576040517f08c379a000000000000000000000000000000000000000000000000000000000815260040161022d906106a2565b60405180910390fd5b600073ffffffffffffffffffffffffffffffffffffffff1660038460405161025e91906105e7565b908152602001604051809103902060009054906101000a900473ffffffffffffffffffffffffffffffffffffffff1673ffffffffffffffffffffffffffffffffffffffff16146102e3576040517f08c379a00000000000000000000000000000000000000000000000000000000081526004016102da906106c2565b60405180910390fd5b6000600160009054906101000a900473ffffffffffffffffffffffffffffffffffffffff1660008054906101000a900473ffffffffffffffffffffffffffffffffffffffff163060405161033690610462565b61034293929190610619565b604051809103906000f08015801561035e573d6000803e3d6000fd5b5090508060038560405161037291906105e7565b908152602001604051809103902060006101000a81548173ffffffffffffffffffffffffffffffffffffffff021916908373ffffffffffffffffffffffffffffffffffffffff1602179055508073ffffffffffffffffffffffffffffffffffffffff167f6eaee8201a623d4ec5397b1feccc8f1ee1dc236fc702e24142f618ada708859d856040516104049190610650565b60405180910390a283819250925050915091565b60008054906101000a900473ffffffffffffffffffffffffffffffffffffffff1681565b600260009054906101000a900473ffffffffffffffffffffffffffffffffffffffff1681565b610976806108ab83390190565b600061048261047d84610707565b6106e2565b90508281526020810184848401111561049e5761049d610838565b5b6104a9848285610791565b509392505050565b600082601f8301126104c6576104c5610833565b5b81356104d684826020860161046f565b91505092915050565b6000602082840312156104f5576104f4610842565b5b600082013567ffffffffffffffff8111156105135761051261083d565b5b61051f848285016104b1565b91505092915050565b6105318161075f565b82525050565b600061054282610738565b61054c8185610743565b935061055c8185602086016107a0565b61056581610847565b840191505092915050565b600061057b82610738565b6105858185610754565b93506105958185602086016107a0565b80840191505092915050565b60006105ae601383610743565b91506105b982610858565b602082019050919050565b60006105d1601083610743565b91506105dc82610881565b602082019050919050565b60006105f38284610570565b915081905092915050565b60006020820190506106136000830184610528565b92915050565b600060608201905061062e6000830186610528565b61063b6020830185610528565b6106486040830184610528565b949350505050565b6000602082019050818103600083015261066a8184610537565b905092915050565b6000604082019050818103600083015261068c8185610537565b905061069b6020830184610528565b9392505050565b600060208201905081810360008301526106bb816105a1565b9050919050565b600060208201905081810360008301526106db816105c4565b9050919050565b60006106ec6106fd565b90506106f882826107d3565b919050565b6000604051905090565b600067ffffffffffffffff82111561072257610721610804565b5b61072b82610847565b9050602081019050919050565b600081519050919050565b600082825260208201905092915050565b600081905092915050565b600061076a82610771565b9050919050565b600073ffffffffffffffffffffffffffffffffffffffff82169050919050565b82818337600083830152505050565b60005b838110156107be5780820151818401526020810190506107a3565b838111156107cd576000848401525b50505050565b6107dc82610847565b810181811067ffffffffffffffff821117156107fb576107fa610804565b5b80604052505050565b7f4e487b7100000000000000000000000000000000000000000000000000000000600052604160045260246000fd5b600080fd5b600080fd5b600080fd5b600080fd5b6000601f19601f8301169050919050565b7f463a206f6e6c79206f63686573747261746f7200000000000000000000000000600082015250565b7f463a206163636f756e742065786973740000000000000000000000000000000060008201525056fe60c060405234801561001057600080fd5b5060405161097638038061097683398181016040528101906100329190610116565b8173ffffffffffffffffffffffffffffffffffffffff1660a08173ffffffffffffffffffffffffffffffffffffffff166c0100000000000000000000000002815250508273ffffffffffffffffffffffffffffffffffffffff1660808173ffffffffffffffffffffffffffffffffffffffff166c01000000000000000000000000028152505080600260006101000a81548173ffffffffffffffffffffffffffffffffffffffff021916908373ffffffffffffffffffffffffffffffffffffffff1602179055505050506101b7565b600081519050610110816101a0565b92915050565b60008060006060848603121561012f5761012e61019b565b5b600061013d86828701610101565b935050602061014e86828701610101565b925050604061015f86828701610101565b9150509250925092565b60006101748261017b565b9050919050565b600073ffffffffffffffffffffffffffffffffffffffff82169050919050565b600080fd5b6101a981610169565b81146101b457600080fd5b50565b6080516c01000000000000000000000000900460a0516c01000000000000000000000000900461076d61020960003960008181607401526102f2015260008181610104015261041a015261076d6000f3fe60806040526004361061006b576000357c0100000000000000000000000000000000000000000000000000000000900480631e7cea80146101bb5780639c811d43146101f8578063a85c38ef14610223578063c45a015514610269578063d7dfa0dd1461029457610072565b3661007257005b7f000000000000000000000000000000000000000000000000000000000000000073ffffffffffffffffffffffffffffffffffffffff163373ffffffffffffffffffffffffffffffffffffffff1614610100576040517f08c379a00000000000000000000000000000000000000000000000000000000081526004016100f7906105fd565b60405180910390fd5b60007f00000000000000000000000000000000000000000000000000000000000000009050600073ffffffffffffffffffffffffffffffffffffffff168173ffffffffffffffffffffffffffffffffffffffff161415610195576040517f08c379a000000000000000000000000000000000000000000000000000000000815260040161018c9061061d565b60405180910390fd5b3660008037600080366000845af43d6000803e80600081146101b6573d6000f35b3d6000fd5b3480156101c757600080fd5b506101e260048036038101906101dd9190610466565b6102bf565b6040516101ef919061063d565b60405180910390f35b34801561020457600080fd5b5061020d6102f0565b60405161021a9190610546565b60405180910390f35b34801561022f57600080fd5b5061024a600480360381019061024591906104a6565b610314565b6040516102609a99989796959493929190610561565b60405180910390f35b34801561027557600080fd5b5061027e6103f2565b60405161028b9190610546565b60405180910390f35b3480156102a057600080fd5b506102a9610418565b6040516102b69190610546565b60405180910390f35b600160205281600052604060002081815481106102db57600080fd5b90600052602060002001600091509150505481565b7f000000000000000000000000000000000000000000000000000000000000000081565b6000818154811061032457600080fd5b90600052602060002090600902016000915090508060000160009054906101000a900473ffffffffffffffffffffffffffffffffffffffff16908060010160009054906101000a900473ffffffffffffffffffffffffffffffffffffffff16908060020160009054906101000a900473ffffffffffffffffffffffffffffffffffffffff16908060030154908060040154908060050154908060060160009054906101000a900460ff16908060060160019054906101000a900460ff1690806007015490806008015490508a565b600260009054906101000a900473ffffffffffffffffffffffffffffffffffffffff1681565b7f000000000000000000000000000000000000000000000000000000000000000081565b60008135905061044b81610709565b92915050565b60008135905061046081610720565b92915050565b6000806040838503121561047d5761047c6106b2565b5b600061048b8582860161043c565b925050602061049c85828601610451565b9150509250929050565b6000602082840312156104bc576104bb6106b2565b5b60006104ca84828501610451565b91505092915050565b6104dc81610669565b82525050565b60006104ef601183610658565b91506104fa826106b7565b602082019050919050565b6000610512601683610658565b915061051d826106e0565b602082019050919050565b6105318161069b565b82525050565b610540816106a5565b82525050565b600060208201905061055b60008301846104d3565b92915050565b600061014082019050610577600083018d6104d3565b610584602083018c6104d3565b610591604083018b6104d3565b61059e606083018a610528565b6105ab6080830189610528565b6105b860a0830188610528565b6105c560c0830187610537565b6105d260e0830186610537565b6105e0610100830185610528565b6105ee610120830184610528565b9b9a5050505050505050505050565b60006020820190508181036000830152610616816104e2565b9050919050565b6000602082019050818103600083015261063681610505565b9050919050565b60006020820190506106526000830184610528565b92915050565b600082825260208201905092915050565b60006106748261067b565b9050919050565b600073ffffffffffffffffffffffffffffffffffffffff82169050919050565b6000819050919050565b600060ff82169050919050565b600080fd5b7f57503a206465706c6f796572206f6e6c79000000000000000000000000000000600082015250565b7f4c6f67696320636f6e7472616374206e6f742073657400000000000000000000600082015250565b61071281610669565b811461071d57600080fd5b50565b6107298161069b565b811461073457600080fd5b5056fea26469706673582212208e92bebffc000de6b7b7e52e0535c529082926dd947b5bf7f1305dfa7a5c95d264736f6c63430008060033a264697066735822122071f85c6b776fcd0209b134c54ed4596d6b2e1561b34559450deed16e8038613964736f6c6343000806003360806040523480156200001157600080fd5b5060405162002105380380620021058339818101604052810190620000379190620002aa565b80600260006101000a81548173ffffffffffffffffffffffffffffffffffffffff021916908373ffffffffffffffffffffffffffffffffffffffff1602179055506000604051806101400160405280600073ffffffffffffffffffffffffffffffffffffffff168152602001600073ffffffffffffffffffffffffffffffffffffffff168152602001600073ffffffffffffffffffffffffffffffffffffffff168152602001600081526020016000815260200160008152602001600060ff168152602001600160ff168152602001428152602001428152509050600081908060018154018082558091505060019003906000526020600020906009020160009091909190915060008201518160000160006101000a81548173ffffffffffffffffffffffffffffffffffffffff021916908373ffffffffffffffffffffffffffffffffffffffff16021790555060208201518160010160006101000a81548173ffffffffffffffffffffffffffffffffffffffff021916908373ffffffffffffffffffffffffffffffffffffffff16021790555060408201518160020160006101000a81548173ffffffffffffffffffffffffffffffffffffffff021916908373ffffffffffffffffffffffffffffffffffffffff160217905550606082015181600301556080820151816004015560a0820151816005015560c08201518160060160006101000a81548160ff021916908360ff16021790555060e08201518160060160016101000a81548160ff021916908360ff16021790555061010082015181600701556101208201518160080155505050506200032f565b600081519050620002a48162000315565b92915050565b600060208284031215620002c357620002c262000310565b5b6000620002d38482850162000293565b91505092915050565b6000620002e982620002f0565b9050919050565b600073ffffffffffffffffffffffffffffffffffffffff82169050919050565b600080fd5b6200032081620002dc565b81146200032c57600080fd5b50565b611dc6806200033f6000396000f3fe608060405234801561001057600080fd5b50600436106100ec576000357c0100000000000000000000000000000000000000000000000000000000900480636dee2032116100a9578063b00f215c11610083578063b00f215c1461024c578063b1fab21c14610268578063ef3bbbff14610298578063f3fd622f146102b4576100ec565b80636dee2032146101c55780639c811d43146101f5578063a85c38ef14610213576100ec565b806311a21b2c146100f157806311eac855146100fb5780631e7cea8014610119578063240f41601461014957806332c011171461016557806342b50a7a14610195575b600080fd5b6100f96102d0565b005b61010361051c565b604051610110919061182d565b60405180910390f35b610133600480360381019061012e91906114e9565b610542565b6040516101409190611a0b565b60405180910390f35b610163600480360381019061015e91906114e9565b610573565b005b61017f600480360381019061017a919061141a565b610660565b60405161018c9190611a0b565b60405180910390f35b6101af60048036038101906101aa9190611556565b6106ac565b6040516101bc91906119ef565b60405180910390f35b6101df60048036038101906101da919061141a565b610857565b6040516101ec919061190d565b60405180910390f35b6101fd6108ee565b60405161020a919061182d565b60405180910390f35b61022d60048036038101906102289190611556565b610914565b6040516102439a99989796959493929190611848565b60405180910390f35b610266600480360381019061026191906114e9565b6109f2565b005b610282600480360381019061027d9190611447565b610c97565b60405161028f9190611a0b565b60405180910390f35b6102b260048036038101906102ad91906114e9565b611069565b005b6102ce60048036038101906102c9919061141a565b6111d2565b005b600260009054906101000a900473ffffffffffffffffffffffffffffffffffffffff1673ffffffffffffffffffffffffffffffffffffffff163373ffffffffffffffffffffffffffffffffffffffff1614610360576040517f08c379a0000000000000000000000000000000000000000000000000000000008152600401610357906119cf565b60405180910390fd5b6000600360009054906101000a900473ffffffffffffffffffffffffffffffffffffffff1673ffffffffffffffffffffffffffffffffffffffff166370a08231306040518263ffffffff167c01000000000000000000000000000000000000000000000000000000000281526004016103d9919061182d565b60206040518083038186803b1580156103f157600080fd5b505afa158015610405573d6000803e3d6000fd5b505050506040513d601f19601f820116820180604052508101906104299190611583565b9050600360009054906101000a900473ffffffffffffffffffffffffffffffffffffffff1673ffffffffffffffffffffffffffffffffffffffff1663a9059cbb600260009054906101000a900473ffffffffffffffffffffffffffffffffffffffff16836040518363ffffffff167c01000000000000000000000000000000000000000000000000000000000281526004016104c69291906118e4565b602060405180830381600087803b1580156104e057600080fd5b505af11580156104f4573d6000803e3d6000fd5b505050506040513d601f19601f820116820180604052508101906105189190611529565b5050565b600360009054906101000a900473ffffffffffffffffffffffffffffffffffffffff1681565b6001602052816000526040600020818154811061055e57600080fd5b90600052602060002001600091509150505481565b8173ffffffffffffffffffffffffffffffffffffffff163373ffffffffffffffffffffffffffffffffffffffff16146105e1576040517f08c379a00000000000000000000000000000000000000000000000000000000081526004016105d89061196f565b60405180910390fd5b60008082815481106105f6576105f5611c0a565b5b9060005260206000209060090201905060048160060160016101000a81548160ff021916908360ff1602179055507fbd551ca6c38e2ad16afa16c81fcb4b8e891315559bfb80f551ab6b66cb583dbd826040516106539190611a0b565b60405180910390a1505050565b6000600160008373ffffffffffffffffffffffffffffffffffffffff1673ffffffffffffffffffffffffffffffffffffffff168152602001908152602001600020805490509050919050565b6106b4611316565b600082815481106106c8576106c7611c0a565b5b9060005260206000209060090201604051806101400160405290816000820160009054906101000a900473ffffffffffffffffffffffffffffffffffffffff1673ffffffffffffffffffffffffffffffffffffffff1673ffffffffffffffffffffffffffffffffffffffff1681526020016001820160009054906101000a900473ffffffffffffffffffffffffffffffffffffffff1673ffffffffffffffffffffffffffffffffffffffff1673ffffffffffffffffffffffffffffffffffffffff1681526020016002820160009054906101000a900473ffffffffffffffffffffffffffffffffffffffff1673ffffffffffffffffffffffffffffffffffffffff1673ffffffffffffffffffffffffffffffffffffffff1681526020016003820154815260200160048201548152602001600582015481526020016006820160009054906101000a900460ff1660ff1660ff1681526020016006820160019054906101000a900460ff1660ff1660ff168152602001600782015481526020016008820154815250509050919050565b6060600160008373ffffffffffffffffffffffffffffffffffffffff1673ffffffffffffffffffffffffffffffffffffffff1681526020019081526020016000208054806020026020016040519081016040528092919081815260200182805480156108e257602002820191906000526020600020905b8154815260200190600101908083116108ce575b50505050509050919050565b600260009054906101000a900473ffffffffffffffffffffffffffffffffffffffff1681565b6000818154811061092457600080fd5b90600052602060002090600902016000915090508060000160009054906101000a900473ffffffffffffffffffffffffffffffffffffffff16908060010160009054906101000a900473ffffffffffffffffffffffffffffffffffffffff16908060020160009054906101000a900473ffffffffffffffffffffffffffffffffffffffff16908060030154908060040154908060050154908060060160009054906101000a900460ff16908060060160019054906101000a900460ff1690806007015490806008015490508a565b8173ffffffffffffffffffffffffffffffffffffffff163373ffffffffffffffffffffffffffffffffffffffff1614610a60576040517f08c379a0000000000000000000000000000000000000000000000000000000008152600401610a579061196f565b60405180910390fd5b6000600160008473ffffffffffffffffffffffffffffffffffffffff1673ffffffffffffffffffffffffffffffffffffffff1681526020019081526020016000208281548110610ab357610ab2611c0a565b5b90600052602060002001549050600160008473ffffffffffffffffffffffffffffffffffffffff1673ffffffffffffffffffffffffffffffffffffffff1681526020019081526020016000208281548110610b1157610b10611c0a565b5b90600052602060002001600090556000808281548110610b3457610b33611c0a565b5b9060005260206000209060090201905042816008018190555060018160060160016101000a81548160ff021916908360ff1602179055508060020160009054906101000a900473ffffffffffffffffffffffffffffffffffffffff1673ffffffffffffffffffffffffffffffffffffffff168160010160009054906101000a900473ffffffffffffffffffffffffffffffffffffffff1673ffffffffffffffffffffffffffffffffffffffff168260000160009054906101000a900473ffffffffffffffffffffffffffffffffffffffff1673ffffffffffffffffffffffffffffffffffffffff167f7296e5ad5c0ce57fe4cbceb3362886c7162b073357dd6b39025453458f6f8482858560030154866004015487600501548860060160009054906101000a900460ff1689600801548a60060160019054906101000a900460ff16604051610c899796959493929190611a87565b60405180910390a450505050565b60008673ffffffffffffffffffffffffffffffffffffffff163373ffffffffffffffffffffffffffffffffffffffff1614610d07576040517f08c379a0000000000000000000000000000000000000000000000000000000008152600401610cfe9061192f565b60405180910390fd5b60008511610d4a576040517f08c379a0000000000000000000000000000000000000000000000000000000008152600401610d419061194f565b60405180910390fd5b60006040518061014001604052808a73ffffffffffffffffffffffffffffffffffffffff1681526020018973ffffffffffffffffffffffffffffffffffffffff1681526020018873ffffffffffffffffffffffffffffffffffffffff1681526020018781526020018681526020018581526020018460ff168152602001600060ff16815260200142815260200160008152509050600081908060018154018082558091505060019003906000526020600020906009020160009091909190915060008201518160000160006101000a81548173ffffffffffffffffffffffffffffffffffffffff021916908373ffffffffffffffffffffffffffffffffffffffff16021790555060208201518160010160006101000a81548173ffffffffffffffffffffffffffffffffffffffff021916908373ffffffffffffffffffffffffffffffffffffffff16021790555060408201518160020160006101000a81548173ffffffffffffffffffffffffffffffffffffffff021916908373ffffffffffffffffffffffffffffffffffffffff160217905550606082015181600301556080820151816004015560a0820151816005015560c08201518160060160006101000a81548160ff021916908360ff16021790555060e08201518160060160016101000a81548160ff021916908360ff16021790555061010082015181600701556101208201518160080155505060006001600080549050610f6b9190611b40565b9050600160008b73ffffffffffffffffffffffffffffffffffffffff1673ffffffffffffffffffffffffffffffffffffffff1681526020019081526020016000208190806001815401808255809150506001900390600052602060002001600090919091909150558773ffffffffffffffffffffffffffffffffffffffff168973ffffffffffffffffffffffffffffffffffffffff168b73ffffffffffffffffffffffffffffffffffffffff167e23c8dda5a5d69bbdf1f810b48e0b0fff6827cca652b18c81b25d8759bf67f2848b8b8b8b600060405161105196959493929190611a26565b60405180910390a48092505050979650505050505050565b8173ffffffffffffffffffffffffffffffffffffffff163373ffffffffffffffffffffffffffffffffffffffff16146110d7576040517f08c379a00000000000000000000000000000000000000000000000000000000081526004016110ce906119af565b60405180910390fd5b6000600160008473ffffffffffffffffffffffffffffffffffffffff1673ffffffffffffffffffffffffffffffffffffffff168152602001908152602001600020828154811061112a57611129611c0a565b5b90600052602060002001549050600160008473ffffffffffffffffffffffffffffffffffffffff1673ffffffffffffffffffffffffffffffffffffffff168152602001908152602001600020828154811061118857611187611c0a565b5b90600052602060002001600090557f6526538f9bd98d105bdfc50096f40172dea60988b982f7776fa03d816600eac8816040516111c59190611a0b565b60405180910390a1505050565b600260009054906101000a900473ffffffffffffffffffffffffffffffffffffffff1673ffffffffffffffffffffffffffffffffffffffff163373ffffffffffffffffffffffffffffffffffffffff1614611262576040517f08c379a0000000000000000000000000000000000000000000000000000000008152600401611259906119cf565b60405180910390fd5b600073ffffffffffffffffffffffffffffffffffffffff168173ffffffffffffffffffffffffffffffffffffffff1614156112d2576040517f08c379a00000000000000000000000000000000000000000000000000000000081526004016112c99061198f565b60405180910390fd5b80600360006101000a81548173ffffffffffffffffffffffffffffffffffffffff021916908373ffffffffffffffffffffffffffffffffffffffff16021790555050565b604051806101400160405280600073ffffffffffffffffffffffffffffffffffffffff168152602001600073ffffffffffffffffffffffffffffffffffffffff168152602001600073ffffffffffffffffffffffffffffffffffffffff168152602001600081526020016000815260200160008152602001600060ff168152602001600060ff16815260200160008152602001600081525090565b6000813590506113c081611d34565b92915050565b6000815190506113d581611d4b565b92915050565b6000813590506113ea81611d62565b92915050565b6000815190506113ff81611d62565b92915050565b60008135905061141481611d79565b92915050565b6000602082840312156114305761142f611c39565b5b600061143e848285016113b1565b91505092915050565b600080600080600080600060e0888a03121561146657611465611c39565b5b60006114748a828b016113b1565b97505060206114858a828b016113b1565b96505060406114968a828b016113b1565b95505060606114a78a828b016113db565b94505060806114b88a828b016113db565b93505060a06114c98a828b016113db565b92505060c06114da8a828b01611405565b91505092959891949750929550565b60008060408385031215611500576114ff611c39565b5b600061150e858286016113b1565b925050602061151f858286016113db565b9150509250929050565b60006020828403121561153f5761153e611c39565b5b600061154d848285016113c6565b91505092915050565b60006020828403121561156c5761156b611c39565b5b600061157a848285016113db565b91505092915050565b60006020828403121561159957611598611c39565b5b60006115a7848285016113f0565b91505092915050565b60006115bc83836117f1565b60208301905092915050565b6115d181611b74565b82525050565b6115e081611b74565b82525050565b60006115f182611b06565b6115fb8185611b1e565b935061160683611af6565b8060005b8381101561163757815161161e88826115b0565b975061162983611b11565b92505060018101905061160a565b5085935050505092915050565b61164d81611bc9565b82525050565b6000611660601083611b2f565b915061166b82611c3e565b602082019050919050565b6000611683601083611b2f565b915061168e82611c67565b602082019050919050565b60006116a6600e83611b2f565b91506116b182611c90565b602082019050919050565b60006116c9601283611b2f565b91506116d482611cb9565b602082019050919050565b60006116ec600d83611b2f565b91506116f782611ce2565b602082019050919050565b600061170f601383611b2f565b915061171a82611d0b565b602082019050919050565b6101408201600082015161173c60008501826115c8565b50602082015161174f60208501826115c8565b50604082015161176260408501826115c8565b50606082015161177560608501826117f1565b50608082015161178860808501826117f1565b5060a082015161179b60a08501826117f1565b5060c08201516117ae60c085018261180f565b5060e08201516117c160e085018261180f565b506101008201516117d66101008501826117f1565b506101208201516117eb6101208501826117f1565b50505050565b6117fa81611bb2565b82525050565b61180981611bb2565b82525050565b61181881611bbc565b82525050565b61182781611bbc565b82525050565b600060208201905061184260008301846115d7565b92915050565b60006101408201905061185e600083018d6115d7565b61186b602083018c6115d7565b611878604083018b6115d7565b611885606083018a611800565b6118926080830189611800565b61189f60a0830188611800565b6118ac60c083018761181e565b6118b960e083018661181e565b6118c7610100830185611800565b6118d5610120830184611800565b9b9a5050505050505050505050565b60006040820190506118f960008301856115d7565b6119066020830184611800565b9392505050565b6000602082019050818103600083015261192781846115e6565b905092915050565b6000602082019050818103600083015261194881611653565b9050919050565b6000602082019050818103600083015261196881611676565b9050919050565b6000602082019050818103600083015261198881611699565b9050919050565b600060208201905081810360008301526119a8816116bc565b9050919050565b600060208201905081810360008301526119c8816116df565b9050919050565b600060208201905081810360008301526119e881611702565b9050919050565b600061014082019050611a056000830184611725565b92915050565b6000602082019050611a206000830184611800565b92915050565b600060c082019050611a3b6000830189611800565b611a486020830188611800565b611a556040830187611800565b611a626060830186611800565b611a6f608083018561181e565b611a7c60a0830184611644565b979650505050505050565b600060e082019050611a9c600083018a611800565b611aa96020830189611800565b611ab66040830188611800565b611ac36060830187611800565b611ad0608083018661181e565b611add60a0830185611800565b611aea60c083018461181e565b98975050505050505050565b6000819050602082019050919050565b600081519050919050565b6000602082019050919050565b600082825260208201905092915050565b600082825260208201905092915050565b6000611b4b82611bb2565b9150611b5683611bb2565b925082821015611b6957611b68611bdb565b5b828203905092915050565b6000611b7f82611b92565b9050919050565b60008115159050919050565b600073ffffffffffffffffffffffffffffffffffffffff82169050919050565b6000819050919050565b600060ff82169050919050565b6000611bd482611bbc565b9050919050565b7f4e487b7100000000000000000000000000000000000000000000000000000000600052601160045260246000fd5b7f4e487b7100000000000000000000000000000000000000000000000000000000600052603260045260246000fd5b600080fd5b7f433a20637573746f6d6572206f6e6c7900000000000000000000000000000000600082015250565b7f433a20696e76616c6964206f7264657200000000000000000000000000000000600082015250565b7f433a206f6e6c792073656c6c6572000000000000000000000000000000000000600082015250565b7f463a20696e76616c696420616464726573730000000000000000000000000000600082015250565b7f433a206f6e6c7920627579657200000000000000000000000000000000000000600082015250565b7f463a206f6e6c79206f63686573747261746f7200000000000000000000000000600082015250565b611d3d81611b74565b8114611d4857600080fd5b50565b611d5481611b86565b8114611d5f57600080fd5b50565b611d6b81611bb2565b8114611d7657600080fd5b50565b611d8281611bbc565b8114611d8d57600080fd5b5056fea26469706673582212206e19e58d554e34a3bd6c88b316e9394750d07f414d4762c75714d3c1a245f3e964736f6c63430008060033608060405234801561001057600080fd5b506124b2806100206000396000f3fe608060405234801561001057600080fd5b50600436106100c6576000357c01000000000000000000000000000000000000000000000000000000009004806391c024151161008e57806391c0241514610195578063a85c38ef146101b1578063bd4b8a04146101ea578063c45a015514610206578063dbe5bab514610224578063fdf61e6814610242576100c6565b806312b58349146100cb5780631971e03b146100e95780631e7cea801461011957806324f63894146101495780636282682a14610165575b600080fd5b6100d3610260565b6040516100e09190611f73565b60405180910390f35b61010360048036038101906100fe9190611829565b61026f565b6040516101109190611f73565b60405180910390f35b610133600480360381019061012e91906118a4565b6105ae565b6040516101409190611f73565b60405180910390f35b610163600480360381019061015e9190611988565b6105df565b005b61017f600480360381019061017a9190611829565b610796565b60405161018c9190611f73565b60405180910390f35b6101af60048036038101906101aa9190611988565b61085e565b005b6101cb60048036038101906101c69190611988565b610a42565b6040516101e19a99989796959493929190611d2c565b60405180910390f35b61020460048036038101906101ff9190611988565b610b20565b005b61020e610d96565b60405161021b9190611c33565b60405180910390f35b61022c610dbc565b6040516102399190611df1565b60405180910390f35b61024a610dcb565b6040516102579190611f73565b60405180910390f35b600061026a610dda565b905090565b60008061027a610f26565b73ffffffffffffffffffffffffffffffffffffffff166311eac8556040518163ffffffff167c010000000000000000000000000000000000000000000000000000000002815260040160206040518083038186803b1580156102db57600080fd5b505afa1580156102ef573d6000803e3d6000fd5b505050506040513d601f19601f8201168201806040525081019061031391906117fc565b9050600073ffffffffffffffffffffffffffffffffffffffff168773ffffffffffffffffffffffffffffffffffffffff161415610385576040517f08c379a000000000000000000000000000000000000000000000000000000000815260040161037c90611ef3565b60405180910390fd5b600073ffffffffffffffffffffffffffffffffffffffff168173ffffffffffffffffffffffffffffffffffffffff1614156103f5576040517f08c379a00000000000000000000000000000000000000000000000000000000081526004016103ec90611f53565b60405180910390fd5b82856104019190612029565b8173ffffffffffffffffffffffffffffffffffffffff166370a08231896040518263ffffffff167c01000000000000000000000000000000000000000000000000000000000281526004016104569190611c33565b60206040518083038186803b15801561046e57600080fd5b505afa158015610482573d6000803e3d6000fd5b505050506040513d601f19601f820116820180604052508101906104a691906119b5565b10156104e7576040517f08c379a00000000000000000000000000000000000000000000000000000000081526004016104de90611eb3565b60405180910390fd5b6104ef610f26565b73ffffffffffffffffffffffffffffffffffffffff1663b1fab21c88308989898960006040518863ffffffff167c01000000000000000000000000000000000000000000000000000000000281526004016105509796959493929190611c4e565b602060405180830381600087803b15801561056a57600080fd5b505af115801561057e573d6000803e3d6000fd5b505050506040513d601f19601f820116820180604052508101906105a291906119b5565b91505095945050505050565b600160205281600052604060002081815481106105ca57600080fd5b90600052602060002001600091509150505481565b60006105e9610f26565b73ffffffffffffffffffffffffffffffffffffffff166342b50a7a836040518263ffffffff167c010000000000000000000000000000000000000000000000000000000002815260040161063d9190611f73565b6101406040518083038186803b15801561065657600080fd5b505afa15801561066a573d6000803e3d6000fd5b505050506040513d601f19601f8201168201806040525081019061068e919061195a565b90503073ffffffffffffffffffffffffffffffffffffffff16816000015173ffffffffffffffffffffffffffffffffffffffff1614610702576040517f08c379a00000000000000000000000000000000000000000000000000000000081526004016106f990611e53565b60405180910390fd5b61070a610f26565b73ffffffffffffffffffffffffffffffffffffffff1663240f416030846040518363ffffffff167c0100000000000000000000000000000000000000000000000000000000028152600401610760929190611dc8565b600060405180830381600087803b15801561077a57600080fd5b505af115801561078e573d6000803e3d6000fd5b505050505050565b60006107a0610f26565b73ffffffffffffffffffffffffffffffffffffffff1663b1fab21c30888888888860016040518863ffffffff167c01000000000000000000000000000000000000000000000000000000000281526004016108019796959493929190611cbd565b602060405180830381600087803b15801561081b57600080fd5b505af115801561082f573d6000803e3d6000fd5b505050506040513d601f19601f8201168201806040525081019061085391906119b5565b905095945050505050565b6000610868610fe9565b9050600081838151811061087f5761087e6121d5565b5b602002602001015190506000610893610f26565b73ffffffffffffffffffffffffffffffffffffffff166342b50a7a836040518263ffffffff167c01000000000000000000000000000000000000000000000000000000000281526004016108e79190611f73565b6101406040518083038186803b15801561090057600080fd5b505afa158015610914573d6000803e3d6000fd5b505050506040513d601f19601f82011682018060405250810190610938919061195a565b90503073ffffffffffffffffffffffffffffffffffffffff16816020015173ffffffffffffffffffffffffffffffffffffffff16146109ac576040517f08c379a00000000000000000000000000000000000000000000000000000000081526004016109a390611e73565b60405180910390fd5b6109b4610f26565b73ffffffffffffffffffffffffffffffffffffffff1663ef3bbbff30866040518363ffffffff167c0100000000000000000000000000000000000000000000000000000000028152600401610a0a929190611dc8565b600060405180830381600087803b158015610a2457600080fd5b505af1158015610a38573d6000803e3d6000fd5b5050505050505050565b60008181548110610a5257600080fd5b90600052602060002090600902016000915090508060000160009054906101000a900473ffffffffffffffffffffffffffffffffffffffff16908060010160009054906101000a900473ffffffffffffffffffffffffffffffffffffffff16908060020160009054906101000a900473ffffffffffffffffffffffffffffffffffffffff16908060030154908060040154908060050154908060060160009054906101000a900460ff16908060060160019054906101000a900460ff1690806007015490806008015490508a565b6000610b2a610fe9565b90506000815111610b70576040517f08c379a0000000000000000000000000000000000000000000000000000000008152600401610b6790611e93565b60405180910390fd5b6000818381518110610b8557610b846121d5565b5b602002602001015190506000610b99610f26565b73ffffffffffffffffffffffffffffffffffffffff166342b50a7a836040518263ffffffff167c0100000000000000000000000000000000000000000000000000000000028152600401610bed9190611f73565b6101406040518083038186803b158015610c0657600080fd5b505afa158015610c1a573d6000803e3d6000fd5b505050506040513d601f19601f82011682018060405250810190610c3e919061195a565b90503073ffffffffffffffffffffffffffffffffffffffff16816000015173ffffffffffffffffffffffffffffffffffffffff1614610cb2576040517f08c379a0000000000000000000000000000000000000000000000000000000008152600401610ca990611e13565b60405180910390fd5b610cba610f26565b73ffffffffffffffffffffffffffffffffffffffff1663b00f215c30866040518363ffffffff167c0100000000000000000000000000000000000000000000000000000000028152600401610d10929190611dc8565b600060405180830381600087803b158015610d2a57600080fd5b505af1158015610d3e573d6000803e3d6000fd5b50505050610d59816040015182606001518360a001516110a1565b7fd276fbc5e545783825cac5416bad154c47e39daebf44589255a65b4f56cf3e0e82604051610d889190611f73565b60405180910390a150505050565b600260009054906101000a900473ffffffffffffffffffffffffffffffffffffffff1681565b6060610dc6610fe9565b905090565b6000610dd56114ad565b905090565b6000610de4610f26565b73ffffffffffffffffffffffffffffffffffffffff166311eac8556040518163ffffffff167c010000000000000000000000000000000000000000000000000000000002815260040160206040518083038186803b158015610e4557600080fd5b505afa158015610e59573d6000803e3d6000fd5b505050506040513d601f19601f82011682018060405250810190610e7d91906117fc565b73ffffffffffffffffffffffffffffffffffffffff166370a08231336040518263ffffffff167c0100000000000000000000000000000000000000000000000000000000028152600401610ed19190611c33565b60206040518083038186803b158015610ee957600080fd5b505afa158015610efd573d6000803e3d6000fd5b505050506040513d601f19601f82011682018060405250810190610f2191906119b5565b905090565b6000600260009054906101000a900473ffffffffffffffffffffffffffffffffffffffff1673ffffffffffffffffffffffffffffffffffffffff1663d226ae086040518163ffffffff167c010000000000000000000000000000000000000000000000000000000002815260040160206040518083038186803b158015610fac57600080fd5b505afa158015610fc0573d6000803e3d6000fd5b505050506040513d601f19601f82011682018060405250810190610fe491906117fc565b905090565b6060610ff3610f26565b73ffffffffffffffffffffffffffffffffffffffff16636dee2032306040518263ffffffff167c01000000000000000000000000000000000000000000000000000000000281526004016110479190611c33565b60006040518083038186803b15801561105f57600080fd5b505afa158015611073573d6000803e3d6000fd5b505050506040513d6000823e3d601f19601f8201168201806040525081019061109c91906118e4565b905090565b3073ffffffffffffffffffffffffffffffffffffffff168373ffffffffffffffffffffffffffffffffffffffff161415611110576040517f08c379a000000000000000000000000000000000000000000000000000000000815260040161110790611f13565b60405180910390fd5b600073ffffffffffffffffffffffffffffffffffffffff168373ffffffffffffffffffffffffffffffffffffffff161415611180576040517f08c379a000000000000000000000000000000000000000000000000000000000815260040161117790611e33565b60405180910390fd5b600082116111c3576040517f08c379a00000000000000000000000000000000000000000000000000000000081526004016111ba90611f33565b60405180910390fd5b816111cc6114ad565b101561120d576040517f08c379a000000000000000000000000000000000000000000000000000000000815260040161120490611ed3565b60405180910390fd5b611215610f26565b73ffffffffffffffffffffffffffffffffffffffff166311eac8556040518163ffffffff167c010000000000000000000000000000000000000000000000000000000002815260040160206040518083038186803b15801561127657600080fd5b505afa15801561128a573d6000803e3d6000fd5b505050506040513d601f19601f820116820180604052508101906112ae91906117fc565b73ffffffffffffffffffffffffffffffffffffffff1663a9059cbb84846040518363ffffffff167c0100000000000000000000000000000000000000000000000000000000028152600401611304929190611dc8565b602060405180830381600087803b15801561131e57600080fd5b505af1158015611332573d6000803e3d6000fd5b505050506040513d601f19601f82011682018060405250810190611356919061192d565b5061135f610f26565b73ffffffffffffffffffffffffffffffffffffffff166311eac8556040518163ffffffff167c010000000000000000000000000000000000000000000000000000000002815260040160206040518083038186803b1580156113c057600080fd5b505afa1580156113d4573d6000803e3d6000fd5b505050506040513d601f19601f820116820180604052508101906113f891906117fc565b73ffffffffffffffffffffffffffffffffffffffff1663a9059cbb61141b610f26565b836040518363ffffffff167c0100000000000000000000000000000000000000000000000000000000028152600401611455929190611dc8565b602060405180830381600087803b15801561146f57600080fd5b505af1158015611483573d6000803e3d6000fd5b505050506040513d601f19601f820116820180604052508101906114a7919061192d565b50505050565b6000806114b8610fe9565b905060006114c4610dda565b905060005b600183516114d7919061207f565b8110156115e15760006114e8610f26565b73ffffffffffffffffffffffffffffffffffffffff166342b50a7a858481518110611516576115156121d5565b5b60200260200101516040518263ffffffff167c01000000000000000000000000000000000000000000000000000000000281526004016115569190611f73565b6101406040518083038186803b15801561156f57600080fd5b505afa158015611583573d6000803e3d6000fd5b505050506040513d601f19601f820116820180604052508101906115a7919061195a565b90508060600151836115b9919061207f565b92508060a00151836115cb919061207f565b92505080806115d99061215d565b9150506114c9565b50809250505090565b60006115fd6115f884611fb3565b611f8e565b905080838252602082019050828560208602820111156116205761161f61223d565b5b60005b85811015611650578161163688826117d2565b845260208401935060208301925050600181019050611623565b5050509392505050565b60008135905061166981612420565b92915050565b60008151905061167e81612420565b92915050565b600082601f83011261169957611698612233565b5b81516116a98482602086016115ea565b91505092915050565b6000815190506116c181612437565b92915050565b600061014082840312156116de576116dd612238565b5b6116e9610140611f8e565b905060006116f98482850161166f565b600083015250602061170d8482850161166f565b60208301525060406117218482850161166f565b6040830152506060611735848285016117d2565b6060830152506080611749848285016117d2565b60808301525060a061175d848285016117d2565b60a08301525060c0611771848285016117e7565b60c08301525060e0611785848285016117e7565b60e08301525061010061179a848285016117d2565b610100830152506101206117b0848285016117d2565b6101208301525092915050565b6000813590506117cc8161244e565b92915050565b6000815190506117e18161244e565b92915050565b6000815190506117f681612465565b92915050565b60006020828403121561181257611811612247565b5b60006118208482850161166f565b91505092915050565b600080600080600060a0868803121561184557611844612247565b5b60006118538882890161165a565b95505060206118648882890161165a565b9450506040611875888289016117bd565b9350506060611886888289016117bd565b9250506080611897888289016117bd565b9150509295509295909350565b600080604083850312156118bb576118ba612247565b5b60006118c98582860161165a565b92505060206118da858286016117bd565b9150509250929050565b6000602082840312156118fa576118f9612247565b5b600082015167ffffffffffffffff81111561191857611917612242565b5b61192484828501611684565b91505092915050565b60006020828403121561194357611942612247565b5b6000611951848285016116b2565b91505092915050565b6000610140828403121561197157611970612247565b5b600061197f848285016116c7565b91505092915050565b60006020828403121561199e5761199d612247565b5b60006119ac848285016117bd565b91505092915050565b6000602082840312156119cb576119ca612247565b5b60006119d9848285016117d2565b91505092915050565b60006119ee8383611c06565b60208301905092915050565b611a03816120b3565b82525050565b6000611a1482611fef565b611a1e8185612007565b9350611a2983611fdf565b8060005b83811015611a5a578151611a4188826119e2565b9750611a4c83611ffa565b925050600181019050611a2d565b5085935050505092915050565b611a7081612108565b82525050565b611a7f8161211a565b82525050565b6000611a92601283612018565b9150611a9d8261225d565b602082019050919050565b6000611ab5601783612018565b9150611ac082612286565b602082019050919050565b6000611ad8601083612018565b9150611ae3826122af565b602082019050919050565b6000611afb600f83612018565b9150611b06826122d8565b602082019050919050565b6000611b1e601383612018565b9150611b2982612301565b602082019050919050565b6000611b41601183612018565b9150611b4c8261232a565b602082019050919050565b6000611b64601783612018565b9150611b6f82612353565b602082019050919050565b6000611b87601383612018565b9150611b928261237c565b602082019050919050565b6000611baa601383612018565b9150611bb5826123a5565b602082019050919050565b6000611bcd601a83612018565b9150611bd8826123ce565b602082019050919050565b6000611bf0601783612018565b9150611bfb826123f7565b602082019050919050565b611c0f816120f1565b82525050565b611c1e816120f1565b82525050565b611c2d816120fb565b82525050565b6000602082019050611c4860008301846119fa565b92915050565b600060e082019050611c63600083018a6119fa565b611c7060208301896119fa565b611c7d60408301886119fa565b611c8a6060830187611c15565b611c976080830186611c15565b611ca460a0830185611c15565b611cb160c0830184611a67565b98975050505050505050565b600060e082019050611cd2600083018a6119fa565b611cdf60208301896119fa565b611cec60408301886119fa565b611cf96060830187611c15565b611d066080830186611c15565b611d1360a0830185611c15565b611d2060c0830184611a76565b98975050505050505050565b600061014082019050611d42600083018d6119fa565b611d4f602083018c6119fa565b611d5c604083018b6119fa565b611d69606083018a611c15565b611d766080830189611c15565b611d8360a0830188611c15565b611d9060c0830187611c24565b611d9d60e0830186611c24565b611dab610100830185611c15565b611db9610120830184611c15565b9b9a5050505050505050505050565b6000604082019050611ddd60008301856119fa565b611dea6020830184611c15565b9392505050565b60006020820190508181036000830152611e0b8184611a09565b905092915050565b60006020820190508181036000830152611e2c81611a85565b9050919050565b60006020820190508181036000830152611e4c81611aa8565b9050919050565b60006020820190508181036000830152611e6c81611acb565b9050919050565b60006020820190508181036000830152611e8c81611aee565b9050919050565b60006020820190508181036000830152611eac81611b11565b9050919050565b60006020820190508181036000830152611ecc81611b34565b9050919050565b60006020820190508181036000830152611eec81611b57565b9050919050565b60006020820190508181036000830152611f0c81611b7a565b9050919050565b60006020820190508181036000830152611f2c81611b9d565b9050919050565b60006020820190508181036000830152611f4c81611bc0565b9050919050565b60006020820190508181036000830152611f6c81611be3565b9050919050565b6000602082019050611f886000830184611c15565b92915050565b6000611f98611fa9565b9050611fa4828261212c565b919050565b6000604051905090565b600067ffffffffffffffff821115611fce57611fcd612204565b5b602082029050602081019050919050565b6000819050602082019050919050565b600081519050919050565b6000602082019050919050565b600082825260208201905092915050565b600082825260208201905092915050565b6000612034826120f1565b915061203f836120f1565b9250827fffffffffffffffffffffffffffffffffffffffffffffffffffffffffffffffff03821115612074576120736121a6565b5b828201905092915050565b600061208a826120f1565b9150612095836120f1565b9250828210156120a8576120a76121a6565b5b828203905092915050565b60006120be826120d1565b9050919050565b60008115159050919050565b600073ffffffffffffffffffffffffffffffffffffffff82169050919050565b6000819050919050565b600060ff82169050919050565b6000612113826120fb565b9050919050565b6000612125826120fb565b9050919050565b6121358261224c565b810181811067ffffffffffffffff8211171561215457612153612204565b5b80604052505050565b6000612168826120f1565b91507fffffffffffffffffffffffffffffffffffffffffffffffffffffffffffffffff82141561219b5761219a6121a6565b5b600182019050919050565b7f4e487b7100000000000000000000000000000000000000000000000000000000600052601160045260246000fd5b7f4e487b7100000000000000000000000000000000000000000000000000000000600052603260045260246000fd5b7f4e487b7100000000000000000000000000000000000000000000000000000000600052604160045260246000fd5b600080fd5b600080fd5b600080fd5b600080fd5b600080fd5b6000601f19601f8301169050919050565b7f43574c3a20696e76616c6964206f726465720000000000000000000000000000600082015250565b7f43574c3a20696e76616c696420746f2061646472657373000000000000000000600082015250565b7f43574c3a206f6e6c792073656c6c657200000000000000000000000000000000600082015250565b7f43574c3a206f6e6c792062757965720000000000000000000000000000000000600082015250565b7f43574c3a206e6f206f70656e206f726465727300000000000000000000000000600082015250565b7f433a206e6f7420656e6f75676820555344000000000000000000000000000000600082015250565b7f43574c3a20696e73756666696369656e742066756e6473000000000000000000600082015250565b7f43574c3a2073656c6c6572206e6f742073657400000000000000000000000000600082015250565b7f43574c3a2073656c6620666f7262696464656e00000000000000000000000000600082015250565b7f43574c3a20616d6f756e742063616e6e6f7420657175616c2030000000000000600082015250565b7f43574c3a207573646320746f6b656e206e6f7420736574000000000000000000600082015250565b612429816120b3565b811461243457600080fd5b50565b612440816120c5565b811461244b57600080fd5b50565b612457816120f1565b811461246257600080fd5b50565b61246e816120fb565b811461247957600080fd5b5056fea2646970667358221220384429949a04c0a302ee679d8bb4106af0b78d73d9e21fa502eab1467e6e4a5c64736f6c63430008060033",
  "immutableReferences": {},
  "source": "// SPDX-License-Identifier: MIT\npragma solidity ^0.8.0;\n\nimport \"./CustodianWalletLogic.sol\";\nimport \"./CustodianWalletProxy.sol\";\nimport \"./Escrow.sol\";\n\n/**\n * @dev Factotory responsible for deploying Escrow, Custodian Wallet Logic and\n * managed CustodianWalletProxy for both Vendor and Customer.\n *\n * Note Controlled by deployer account.\n */\ncontract Factory {\n  ////////////////////////////////////////\n  //                                    //\n  //         STATE VARIABLES            //\n  //                                    //\n  ////////////////////////////////////////\n\n  /// @notice EOA of deployer wallet\n  address public ochestrator;\n\n  /// @notice the address of the Custodian Wallet Logic\n  address public custodianWalletLogic;\n\n  address public escrowContractAddress;\n\n  /// @notice mapping of account unique id to custodian wallet\n  /// Note avoid passing predictable number such as incremental number. Use UUID string instead\n  mapping(string => address) public accounts;\n\n  event NewCustodian(string uniqueId, address indexed account);\n\n  ////////////////////////////////////////\n  //                                    //\n  //              FUNCTIONS             //\n  //                                    //\n  ////////////////////////////////////////\n  modifier onlyOchesrator() {\n    require(msg.sender == ochestrator, \"F: only ochestrator\");\n    _;\n  }\n\n  constructor() {\n    ochestrator = msg.sender;\n    escrowContractAddress = address(new Escrow(msg.sender));\n    custodianWalletLogic = address(new CustodianWalletLogic());\n  }\n\n  /**\n   * @dev create a new custodian wallet\n   * @param uuid is the unique id of the custodian wallet\n   */\n  function newCustodian(string memory uuid)\n    public\n    onlyOchesrator\n    returns (string memory, address)\n  {\n    require(accounts[uuid] == address(0x0), \"F: account exist\");\n\n    address wallet = address(\n      new CustodianWalletProxy(custodianWalletLogic, ochestrator, address(this))\n    );\n    accounts[uuid] = wallet;\n\n    emit NewCustodian(uuid, wallet);\n\n    return (uuid, wallet);\n  }\n}\n",
  "sourcePath": "/Users/drewhyte/Sites/BLOCKCHAIN/go-ethereum-api/smart-contracts/contracts/Factory.sol",
  "compiler": {
    "name": "solc",
    "version": "0.8.6+commit.11564f7e.Emscripten.clang"
  },
  "schemaVersion": "3.4.9",
  "updatedAt": "2022-09-14T19:18:41.613Z",
  "devdoc": {
    "details": "Factotory responsible for deploying Escrow, Custodian Wallet Logic and managed CustodianWalletProxy for both Vendor and Customer. Note Controlled by deployer account.",
    "kind": "dev",
    "methods": {
      "newCustodian(string)": {
        "details": "create a new custodian wallet",
        "params": {
          "uuid": "is the unique id of the custodian wallet"
        }
      }
    },
    "version": 1
  },
  "userdoc": {
    "kind": "user",
    "methods": {
      "accounts(string)": {
        "notice": "mapping of account unique id to custodian wallet Note avoid passing predictable number such as incremental number. Use UUID string instead"
      },
      "custodianWalletLogic()": {
        "notice": "the address of the Custodian Wallet Logic"
      },
      "ochestrator()": {
        "notice": "EOA of deployer wallet"
      }
    },
    "version": 1
  }
}