{
  "contractName": "Types",
  "abi": [
    {
      "anonymous": false,
      "inputs": [
        {
          "indexed": false,
          "internalType": "uint256",
          "name": "orderId",
          "type": "uint256"
        }
      ],
      "name": "ApproveRejectedOrder",
      "type": "event"
    },
    {
      "anonymous": false,
      "inputs": [
        {
          "indexed": false,
          "internalType": "uint256",
          "name": "orderId",
          "type": "uint256"
        },
        {
          "indexed": true,
          "internalType": "address",
          "name": "seller",
          "type": "address"
        },
        {
          "indexed": true,
          "internalType": "address",
          "name": "buyer",
          "type": "address"
        },
        {
          "indexed": true,
          "internalType": "address",
          "name": "receiver",
          "type": "address"
        },
        {
          "indexed": false,
          "internalType": "uint256",
          "name": "amount",
          "type": "uint256"
        },
        {
          "indexed": false,
          "internalType": "uint256",
          "name": "rate",
          "type": "uint256"
        },
        {
          "indexed": false,
          "internalType": "uint256",
          "name": "fee",
          "type": "uint256"
        },
        {
          "indexed": false,
          "internalType": "uint8",
          "name": "orderType",
          "type": "uint8"
        },
        {
          "indexed": false,
          "internalType": "uint256",
          "name": "fulfiledTime",
          "type": "uint256"
        },
        {
          "indexed": false,
          "internalType": "uint8",
          "name": "orderStatus",
          "type": "uint8"
        }
      ],
      "name": "ClosedOrder",
      "type": "event"
    },
    {
      "anonymous": false,
      "inputs": [
        {
          "indexed": false,
          "internalType": "uint256",
          "name": "orderId",
          "type": "uint256"
        },
        {
          "indexed": true,
          "internalType": "address",
          "name": "seller",
          "type": "address"
        },
        {
          "indexed": true,
          "internalType": "address",
          "name": "buyer",
          "type": "address"
        },
        {
          "indexed": true,
          "internalType": "address",
          "name": "receiver",
          "type": "address"
        },
        {
          "indexed": false,
          "internalType": "uint256",
          "name": "amount",
          "type": "uint256"
        },
        {
          "indexed": false,
          "internalType": "uint256",
          "name": "rate",
          "type": "uint256"
        },
        {
          "indexed": false,
          "internalType": "uint256",
          "name": "fee",
          "type": "uint256"
        },
        {
          "indexed": false,
          "internalType": "uint8",
          "name": "orderType",
          "type": "uint8"
        },
        {
          "indexed": false,
          "internalType": "uint8",
          "name": "orderStatus",
          "type": "uint8"
        }
      ],
      "name": "OpenOrder",
      "type": "event"
    },
    {
      "anonymous": false,
      "inputs": [
        {
          "indexed": false,
          "internalType": "uint256",
          "name": "orderId",
          "type": "uint256"
        }
      ],
      "name": "OrderFulfilled",
      "type": "event"
    },
    {
      "anonymous": false,
      "inputs": [
        {
          "indexed": false,
          "internalType": "uint256",
          "name": "orderId",
          "type": "uint256"
        }
      ],
      "name": "RejectedOrder",
      "type": "event"
    },
    {
      "inputs": [
        {
          "internalType": "address",
          "name": "",
          "type": "address"
        },
        {
          "internalType": "uint256",
          "name": "",
          "type": "uint256"
        }
      ],
      "name": "openOrders",
      "outputs": [
        {
          "internalType": "uint256",
          "name": "",
          "type": "uint256"
        }
      ],
      "stateMutability": "view",
      "type": "function"
    },
    {
      "inputs": [
        {
          "internalType": "uint256",
          "name": "",
          "type": "uint256"
        }
      ],
      "name": "orders",
      "outputs": [
        {
          "internalType": "address",
          "name": "seller",
          "type": "address"
        },
        {
          "internalType": "address",
          "name": "buyer",
          "type": "address"
        },
        {
          "internalType": "address",
          "name": "receiver",
          "type": "address"
        },
        {
          "internalType": "uint256",
          "name": "amount",
          "type": "uint256"
        },
        {
          "internalType": "uint256",
          "name": "rate",
          "type": "uint256"
        },
        {
          "internalType": "uint256",
          "name": "fee",
          "type": "uint256"
        },
        {
          "internalType": "uint8",
          "name": "orderType",
          "type": "uint8"
        },
        {
          "internalType": "uint8",
          "name": "orderStatus",
          "type": "uint8"
        },
        {
          "internalType": "uint256",
          "name": "startTime",
          "type": "uint256"
        },
        {
          "internalType": "uint256",
          "name": "fulfiledTime",
          "type": "uint256"
        }
      ],
      "stateMutability": "view",
      "type": "function"
    }
  ],
  "bytecode": "0x608060405234801561001057600080fd5b506103fd806100206000396000f3fe608060405234801561001057600080fd5b5060043610610053576000357c0100000000000000000000000000000000000000000000000000000000900480631e7cea8014610058578063a85c38ef14610088575b600080fd5b610072600480360381019061006d91906101fa565b6100c1565b60405161007f9190610330565b60405180910390f35b6100a2600480360381019061009d919061023a565b6100f2565b6040516100b89a99989796959493929190610294565b60405180910390f35b600160205281600052604060002081815481106100dd57600080fd5b90600052602060002001600091509150505481565b6000818154811061010257600080fd5b90600052602060002090600902016000915090508060000160009054906101000a900473ffffffffffffffffffffffffffffffffffffffff16908060010160009054906101000a900473ffffffffffffffffffffffffffffffffffffffff16908060020160009054906101000a900473ffffffffffffffffffffffffffffffffffffffff16908060030154908060040154908060050154908060060160009054906101000a900460ff16908060060160019054906101000a900460ff1690806007015490806008015490508a565b6000813590506101df81610399565b92915050565b6000813590506101f4816103b0565b92915050565b6000806040838503121561021157610210610394565b5b600061021f858286016101d0565b9250506020610230858286016101e5565b9150509250929050565b6000602082840312156102505761024f610394565b5b600061025e848285016101e5565b91505092915050565b6102708161034b565b82525050565b61027f8161037d565b82525050565b61028e81610387565b82525050565b6000610140820190506102aa600083018d610267565b6102b7602083018c610267565b6102c4604083018b610267565b6102d1606083018a610276565b6102de6080830189610276565b6102eb60a0830188610276565b6102f860c0830187610285565b61030560e0830186610285565b610313610100830185610276565b610321610120830184610276565b9b9a5050505050505050505050565b60006020820190506103456000830184610276565b92915050565b60006103568261035d565b9050919050565b600073ffffffffffffffffffffffffffffffffffffffff82169050919050565b6000819050919050565b600060ff82169050919050565b600080fd5b6103a28161034b565b81146103ad57600080fd5b50565b6103b98161037d565b81146103c457600080fd5b5056fea2646970667358221220e87365d2c21ed3cb4236856cffe9de9957f86b8cdad1a2b91f5b9b81aeb7c35f64736f6c63430008060033",
  "immutableReferences": {},
  "source": "// SPDX-License-Identifier: MIT\npragma solidity ^0.8.0;\n\ncontract Types {\n  /// @notice structure of an order\n  struct Order {\n    address seller;\n    address buyer;\n    address receiver;\n    uint256 amount;\n    uint256 rate;\n    uint256 fee;\n    uint8 orderType;\n    uint8 orderStatus;\n    uint256 startTime;\n    uint256 fulfiledTime;\n  }\n\n  Order[] public orders;\n\n  mapping(address => uint256[]) public openOrders;\n\n  /// @notice 0 = BUY, 1 = SELL\n  enum OrderType {\n    BUY,\n    SELL\n  }\n\n  enum OrderStatus {\n    OPEN, // order is open\n    FULFILLED, // order is fulfilled\n    CANCELLED, // order is cancelled\n    EXPIRED, // order is expired (not fulfilled)\n    REJECTED, // order is rejected by seller\n    REFUNDED // order is refunded to the seller\n  }\n\n  ////////////////////////////////////////\n  //                                    //\n  //              EVENTS                //\n  //                                    //\n  ////////////////////////////////////////\n\n  event OpenOrder(\n    uint256 orderId,\n    address indexed seller,\n    address indexed buyer,\n    address indexed receiver,\n    uint256 amount,\n    uint256 rate,\n    uint256 fee,\n    uint8 orderType,\n    uint8 orderStatus\n  );\n\n  event OrderFulfilled(uint256 orderId);\n\n  event ClosedOrder(\n    uint256 orderId,\n    address indexed seller,\n    address indexed buyer,\n    address indexed receiver,\n    uint256 amount,\n    uint256 rate,\n    uint256 fee,\n    uint8 orderType,\n    uint256 fulfiledTime,\n    uint8 orderStatus\n  );\n\n  event RejectedOrder(uint256 orderId);\n\n  event ApproveRejectedOrder(uint256 orderId);\n}\n",
  "sourcePath": "/Users/drewhyte/Sites/BLOCKCHAIN/go-ethereum-api/smart-contracts/contracts/Types.sol",
  "compiler": {
    "name": "solc",
    "version": "0.8.6+commit.11564f7e.Emscripten.clang"
  },
  "schemaVersion": "3.4.9",
  "updatedAt": "2022-09-14T19:18:41.640Z",
  "devdoc": {
    "kind": "dev",
    "methods": {},
    "version": 1
  },
  "userdoc": {
    "kind": "user",
    "methods": {},
    "version": 1
  }
}